{
  "_format": "hh-sol-artifact-1",
  "contractName": "NFTCollectible",
  "sourceName": "contracts/NFTCollectible.sol",
  "abi": [
    {
      "inputs": [
        {
          "internalType": "string",
          "name": "baseURI",
          "type": "string"
        }
      ],
      "stateMutability": "nonpayable",
      "type": "constructor"
    },
    {
      "anonymous": false,
      "inputs": [
        {
          "indexed": true,
          "internalType": "address",
          "name": "owner",
          "type": "address"
        },
        {
          "indexed": true,
          "internalType": "address",
          "name": "approved",
          "type": "address"
        },
        {
          "indexed": true,
          "internalType": "uint256",
          "name": "tokenId",
          "type": "uint256"
        }
      ],
      "name": "Approval",
      "type": "event"
    },
    {
      "anonymous": false,
      "inputs": [
        {
          "indexed": true,
          "internalType": "address",
          "name": "owner",
          "type": "address"
        },
        {
          "indexed": true,
          "internalType": "address",
          "name": "operator",
          "type": "address"
        },
        {
          "indexed": false,
          "internalType": "bool",
          "name": "approved",
          "type": "bool"
        }
      ],
      "name": "ApprovalForAll",
      "type": "event"
    },
    {
      "anonymous": false,
      "inputs": [
        {
          "indexed": true,
          "internalType": "address",
          "name": "previousOwner",
          "type": "address"
        },
        {
          "indexed": true,
          "internalType": "address",
          "name": "newOwner",
          "type": "address"
        }
      ],
      "name": "OwnershipTransferred",
      "type": "event"
    },
    {
      "anonymous": false,
      "inputs": [
        {
          "indexed": true,
          "internalType": "address",
          "name": "from",
          "type": "address"
        },
        {
          "indexed": true,
          "internalType": "address",
          "name": "to",
          "type": "address"
        },
        {
          "indexed": true,
          "internalType": "uint256",
          "name": "tokenId",
          "type": "uint256"
        }
      ],
      "name": "Transfer",
      "type": "event"
    },
    {
      "inputs": [],
      "name": "MAX_PER_MINT",
      "outputs": [
        {
          "internalType": "uint256",
          "name": "",
          "type": "uint256"
        }
      ],
      "stateMutability": "view",
      "type": "function"
    },
    {
      "inputs": [],
      "name": "MAX_SUPPLY",
      "outputs": [
        {
          "internalType": "uint256",
          "name": "",
          "type": "uint256"
        }
      ],
      "stateMutability": "view",
      "type": "function"
    },
    {
      "inputs": [],
      "name": "PRICE",
      "outputs": [
        {
          "internalType": "uint256",
          "name": "",
          "type": "uint256"
        }
      ],
      "stateMutability": "view",
      "type": "function"
    },
    {
      "inputs": [
        {
          "internalType": "address",
          "name": "to",
          "type": "address"
        },
        {
          "internalType": "uint256",
          "name": "tokenId",
          "type": "uint256"
        }
      ],
      "name": "approve",
      "outputs": [],
      "stateMutability": "nonpayable",
      "type": "function"
    },
    {
      "inputs": [
        {
          "internalType": "address",
          "name": "owner",
          "type": "address"
        }
      ],
      "name": "balanceOf",
      "outputs": [
        {
          "internalType": "uint256",
          "name": "",
          "type": "uint256"
        }
      ],
      "stateMutability": "view",
      "type": "function"
    },
    {
      "inputs": [],
      "name": "baseTokenURI",
      "outputs": [
        {
          "internalType": "string",
          "name": "",
          "type": "string"
        }
      ],
      "stateMutability": "view",
      "type": "function"
    },
    {
      "inputs": [
        {
          "internalType": "uint256",
          "name": "tokenId",
          "type": "uint256"
        }
      ],
      "name": "getApproved",
      "outputs": [
        {
          "internalType": "address",
          "name": "",
          "type": "address"
        }
      ],
      "stateMutability": "view",
      "type": "function"
    },
    {
      "inputs": [
        {
          "internalType": "address",
          "name": "owner",
          "type": "address"
        },
        {
          "internalType": "address",
          "name": "operator",
          "type": "address"
        }
      ],
      "name": "isApprovedForAll",
      "outputs": [
        {
          "internalType": "bool",
          "name": "",
          "type": "bool"
        }
      ],
      "stateMutability": "view",
      "type": "function"
    },
    {
      "inputs": [
        {
          "internalType": "uint256",
          "name": "_count",
          "type": "uint256"
        }
      ],
      "name": "mintNFTs",
      "outputs": [],
      "stateMutability": "payable",
      "type": "function"
    },
    {
      "inputs": [],
      "name": "name",
      "outputs": [
        {
          "internalType": "string",
          "name": "",
          "type": "string"
        }
      ],
      "stateMutability": "view",
      "type": "function"
    },
    {
      "inputs": [],
      "name": "owner",
      "outputs": [
        {
          "internalType": "address",
          "name": "",
          "type": "address"
        }
      ],
      "stateMutability": "view",
      "type": "function"
    },
    {
      "inputs": [
        {
          "internalType": "uint256",
          "name": "tokenId",
          "type": "uint256"
        }
      ],
      "name": "ownerOf",
      "outputs": [
        {
          "internalType": "address",
          "name": "",
          "type": "address"
        }
      ],
      "stateMutability": "view",
      "type": "function"
    },
    {
      "inputs": [
        {
          "internalType": "address",
          "name": "receiveToken",
          "type": "address"
        },
        {
          "internalType": "uint256",
          "name": "amount",
          "type": "uint256"
        },
        {
          "internalType": "bytes",
          "name": "",
          "type": "bytes"
        },
        {
          "internalType": "string",
          "name": "",
          "type": "string"
        },
        {
          "internalType": "bytes",
          "name": "reserved",
          "type": "bytes"
        }
      ],
      "name": "receivePayment",
      "outputs": [],
      "stateMutability": "payable",
      "type": "function"
    },
    {
      "inputs": [],
      "name": "renounceOwnership",
      "outputs": [],
      "stateMutability": "nonpayable",
      "type": "function"
    },
    {
      "inputs": [],
      "name": "reserveNFTs",
      "outputs": [],
      "stateMutability": "nonpayable",
      "type": "function"
    },
    {
      "inputs": [
        {
          "internalType": "address",
          "name": "from",
          "type": "address"
        },
        {
          "internalType": "address",
          "name": "to",
          "type": "address"
        },
        {
          "internalType": "uint256",
          "name": "tokenId",
          "type": "uint256"
        }
      ],
      "name": "safeTransferFrom",
      "outputs": [],
      "stateMutability": "nonpayable",
      "type": "function"
    },
    {
      "inputs": [
        {
          "internalType": "address",
          "name": "from",
          "type": "address"
        },
        {
          "internalType": "address",
          "name": "to",
          "type": "address"
        },
        {
          "internalType": "uint256",
          "name": "tokenId",
          "type": "uint256"
        },
        {
          "internalType": "bytes",
          "name": "_data",
          "type": "bytes"
        }
      ],
      "name": "safeTransferFrom",
      "outputs": [],
      "stateMutability": "nonpayable",
      "type": "function"
    },
    {
      "inputs": [
        {
          "internalType": "address",
          "name": "operator",
          "type": "address"
        },
        {
          "internalType": "bool",
          "name": "approved",
          "type": "bool"
        }
      ],
      "name": "setApprovalForAll",
      "outputs": [],
      "stateMutability": "nonpayable",
      "type": "function"
    },
    {
      "inputs": [
        {
          "internalType": "string",
          "name": "_baseTokenURI",
          "type": "string"
        }
      ],
      "name": "setBaseURI",
      "outputs": [],
      "stateMutability": "nonpayable",
      "type": "function"
    },
    {
      "inputs": [],
      "name": "supportSlashExtensionInterface",
      "outputs": [
        {
          "internalType": "uint8",
          "name": "",
          "type": "uint8"
        }
      ],
      "stateMutability": "pure",
      "type": "function"
    },
    {
      "inputs": [
        {
          "internalType": "bytes4",
          "name": "interfaceId",
          "type": "bytes4"
        }
      ],
      "name": "supportsInterface",
      "outputs": [
        {
          "internalType": "bool",
          "name": "",
          "type": "bool"
        }
      ],
      "stateMutability": "view",
      "type": "function"
    },
    {
      "inputs": [],
      "name": "symbol",
      "outputs": [
        {
          "internalType": "string",
          "name": "",
          "type": "string"
        }
      ],
      "stateMutability": "view",
      "type": "function"
    },
    {
      "inputs": [
        {
          "internalType": "uint256",
          "name": "index",
          "type": "uint256"
        }
      ],
      "name": "tokenByIndex",
      "outputs": [
        {
          "internalType": "uint256",
          "name": "",
          "type": "uint256"
        }
      ],
      "stateMutability": "view",
      "type": "function"
    },
    {
      "inputs": [
        {
          "internalType": "address",
          "name": "owner",
          "type": "address"
        },
        {
          "internalType": "uint256",
          "name": "index",
          "type": "uint256"
        }
      ],
      "name": "tokenOfOwnerByIndex",
      "outputs": [
        {
          "internalType": "uint256",
          "name": "",
          "type": "uint256"
        }
      ],
      "stateMutability": "view",
      "type": "function"
    },
    {
      "inputs": [
        {
          "internalType": "uint256",
          "name": "tokenId",
          "type": "uint256"
        }
      ],
      "name": "tokenURI",
      "outputs": [
        {
          "internalType": "string",
          "name": "",
          "type": "string"
        }
      ],
      "stateMutability": "view",
      "type": "function"
    },
    {
      "inputs": [
        {
          "internalType": "address",
          "name": "_owner",
          "type": "address"
        }
      ],
      "name": "tokensOfOwner",
      "outputs": [
        {
          "internalType": "uint256[]",
          "name": "",
          "type": "uint256[]"
        }
      ],
      "stateMutability": "view",
      "type": "function"
    },
    {
      "inputs": [],
      "name": "totalSupply",
      "outputs": [
        {
          "internalType": "uint256",
          "name": "",
          "type": "uint256"
        }
      ],
      "stateMutability": "view",
      "type": "function"
    },
    {
      "inputs": [
        {
          "internalType": "address",
          "name": "from",
          "type": "address"
        },
        {
          "internalType": "address",
          "name": "to",
          "type": "address"
        },
        {
          "internalType": "uint256",
          "name": "tokenId",
          "type": "uint256"
        }
      ],
      "name": "transferFrom",
      "outputs": [],
      "stateMutability": "nonpayable",
      "type": "function"
    },
    {
      "inputs": [
        {
          "internalType": "address",
          "name": "newOwner",
          "type": "address"
        }
      ],
      "name": "transferOwnership",
      "outputs": [],
      "stateMutability": "nonpayable",
      "type": "function"
    },
    {
      "inputs": [],
      "name": "withdraw",
      "outputs": [],
      "stateMutability": "payable",
      "type": "function"
    }
  ],
  "bytecode": "0x60806040523480156200001157600080fd5b50604051620050ed380380620050ed8339818101604052810190620000379190620003d4565b6040518060400160405280601481526020017f536c617368457874656e73696f6e53616d706c650000000000000000000000008152506040518060400160405280600381526020017f53455300000000000000000000000000000000000000000000000000000000008152508160009080519060200190620000bb929190620002b2565b508060019080519060200190620000d4929190620002b2565b505050620000f7620000eb6200010f60201b60201c565b6200011760201b60201c565b6200010881620001dd60201b60201c565b50620005bf565b600033905090565b6000600a60009054906101000a900473ffffffffffffffffffffffffffffffffffffffff16905081600a60006101000a81548173ffffffffffffffffffffffffffffffffffffffff021916908373ffffffffffffffffffffffffffffffffffffffff1602179055508173ffffffffffffffffffffffffffffffffffffffff168173ffffffffffffffffffffffffffffffffffffffff167f8be0079c531659141344cd1fd0a4f28419497f9722a3daafe3b4186f6b6457e060405160405180910390a35050565b620001ed6200010f60201b60201c565b73ffffffffffffffffffffffffffffffffffffffff16620002136200028860201b60201c565b73ffffffffffffffffffffffffffffffffffffffff16146200026c576040517f08c379a000000000000000000000000000000000000000000000000000000000815260040162000263906200045b565b60405180910390fd5b80600c908051906020019062000284929190620002b2565b5050565b6000600a60009054906101000a900473ffffffffffffffffffffffffffffffffffffffff16905090565b828054620002c0906200052b565b90600052602060002090601f016020900481019282620002e4576000855562000330565b82601f10620002ff57805160ff191683800117855562000330565b8280016001018555821562000330579182015b828111156200032f57825182559160200191906001019062000312565b5b5090506200033f919062000343565b5090565b5b808211156200035e57600081600090555060010162000344565b5090565b6000620003796200037384620004b1565b6200047d565b9050828152602081018484840111156200039257600080fd5b6200039f848285620004f5565b509392505050565b600082601f830112620003b957600080fd5b8151620003cb84826020860162000362565b91505092915050565b600060208284031215620003e757600080fd5b600082015167ffffffffffffffff8111156200040257600080fd5b6200041084828501620003a7565b91505092915050565b600062000428602083620004e4565b91507f4f776e61626c653a2063616c6c6572206973206e6f7420746865206f776e65726000830152602082019050919050565b60006020820190508181036000830152620004768162000419565b9050919050565b6000604051905081810181811067ffffffffffffffff82111715620004a757620004a662000590565b5b8060405250919050565b600067ffffffffffffffff821115620004cf57620004ce62000590565b5b601f19601f8301169050602081019050919050565b600082825260208201905092915050565b60005b8381101562000515578082015181840152602081019050620004f8565b8381111562000525576000848401525b50505050565b600060028204905060018216806200054457607f821691505b602082108114156200055b576200055a62000561565b5b50919050565b7f4e487b7100000000000000000000000000000000000000000000000000000000600052602260045260246000fd5b7f4e487b7100000000000000000000000000000000000000000000000000000000600052604160045260246000fd5b614b1e80620005cf6000396000f3fe6080604052600436106101cd5760003560e01c80636352211e116100f757806395d89b4111610095578063d547cfb711610064578063d547cfb71461065c578063e985e9c514610687578063f2fde38b146106c4578063f7b0d10c146106ed576101cd565b806395d89b41146105a2578063a22cb465146105cd578063b88d4fde146105f6578063c87b56dd1461061f576101cd565b80638462151c116100d15780638462151c146104e45780638ab43142146105215780638d859f3e1461054c5780638da5cb5b14610577576101cd565b80636352211e1461045357806370a0823114610490578063715018a6146104cd576101cd565b806323b872dd1161016f5780633ccfd60b1161013e5780633ccfd60b146103ba57806342842e0e146103c45780634f6ccce7146103ed57806355f804b31461042a576101cd565b806323b872dd1461030d5780632f745c591461033657806332cb6b0c146103735780633b4b13811461039e576101cd565b8063095ea7b3116101ab578063095ea7b31461027757806309d42b30146102a0578063144100c7146102cb57806318160ddd146102e2576101cd565b806301ffc9a7146101d257806306fdde031461020f578063081812fc1461023a575b600080fd5b3480156101de57600080fd5b506101f960048036038101906101f4919061353a565b610709565b604051610206919061428a565b60405180910390f35b34801561021b57600080fd5b50610224610783565b60405161023191906142a5565b60405180910390f35b34801561024657600080fd5b50610261600480360381019061025c91906135f6565b610815565b60405161026e91906141ca565b60405180910390f35b34801561028357600080fd5b5061029e60048036038101906102999190613409565b61089a565b005b3480156102ac57600080fd5b506102b56109b2565b6040516102c29190614647565b60405180910390f35b3480156102d757600080fd5b506102e06109b7565b005b3480156102ee57600080fd5b506102f7610ac2565b6040516103049190614647565b60405180910390f35b34801561031957600080fd5b50610334600480360381019061032f9190613303565b610acf565b005b34801561034257600080fd5b5061035d60048036038101906103589190613409565b610b2f565b60405161036a9190614647565b60405180910390f35b34801561037f57600080fd5b50610388610bd4565b6040516103959190614647565b60405180910390f35b6103b860048036038101906103b391906135f6565b610bd9565b005b6103c2610cb8565b005b3480156103d057600080fd5b506103eb60048036038101906103e69190613303565b610e2c565b005b3480156103f957600080fd5b50610414600480360381019061040f91906135f6565b610e4c565b6040516104219190614647565b60405180910390f35b34801561043657600080fd5b50610451600480360381019061044c919061358c565b610ee3565b005b34801561045f57600080fd5b5061047a600480360381019061047591906135f6565b610f79565b60405161048791906141ca565b60405180910390f35b34801561049c57600080fd5b506104b760048036038101906104b2919061329e565b61102b565b6040516104c49190614647565b60405180910390f35b3480156104d957600080fd5b506104e26110e3565b005b3480156104f057600080fd5b5061050b6004803603810190610506919061329e565b61116b565b6040516105189190614268565b60405180910390f35b34801561052d57600080fd5b50610536611265565b6040516105439190614662565b60405180910390f35b34801561055857600080fd5b5061056161126e565b60405161056e9190614647565b60405180910390f35b34801561058357600080fd5b5061058c611278565b60405161059991906141ca565b60405180910390f35b3480156105ae57600080fd5b506105b76112a2565b6040516105c491906142a5565b60405180910390f35b3480156105d957600080fd5b506105f460048036038101906105ef91906133cd565b611334565b005b34801561060257600080fd5b5061061d60048036038101906106189190613352565b61134a565b005b34801561062b57600080fd5b50610646600480360381019061064191906135f6565b6113ac565b60405161065391906142a5565b60405180910390f35b34801561066857600080fd5b50610671611453565b60405161067e91906142a5565b60405180910390f35b34801561069357600080fd5b506106ae60048036038101906106a991906132c7565b6114e1565b6040516106bb919061428a565b60405180910390f35b3480156106d057600080fd5b506106eb60048036038101906106e6919061329e565b611575565b005b61070760048036038101906107029190613445565b61166d565b005b60007f780e9d63000000000000000000000000000000000000000000000000000000007bffffffffffffffffffffffffffffffffffffffffffffffffffffffff1916827bffffffffffffffffffffffffffffffffffffffffffffffffffffffff1916148061077c575061077b8261170f565b5b9050919050565b60606000805461079290614913565b80601f01602080910402602001604051908101604052809291908181526020018280546107be90614913565b801561080b5780601f106107e05761010080835404028352916020019161080b565b820191906000526020600020905b8154815290600101906020018083116107ee57829003601f168201915b5050505050905090565b6000610820826117f1565b61085f576040517f08c379a000000000000000000000000000000000000000000000000000000000815260040161085690614527565b60405180910390fd5b6004600083815260200190815260200160002060009054906101000a900473ffffffffffffffffffffffffffffffffffffffff169050919050565b60006108a582610f79565b90508073ffffffffffffffffffffffffffffffffffffffff168373ffffffffffffffffffffffffffffffffffffffff161415610916576040517f08c379a000000000000000000000000000000000000000000000000000000000815260040161090d90614587565b60405180910390fd5b8073ffffffffffffffffffffffffffffffffffffffff1661093561185d565b73ffffffffffffffffffffffffffffffffffffffff16148061096457506109638161095e61185d565b6114e1565b5b6109a3576040517f08c379a000000000000000000000000000000000000000000000000000000000815260040161099a90614447565b60405180910390fd5b6109ad8383611865565b505050565b600381565b6109bf61185d565b73ffffffffffffffffffffffffffffffffffffffff166109dd611278565b73ffffffffffffffffffffffffffffffffffffffff1614610a33576040517f08c379a0000000000000000000000000000000000000000000000000000000008152600401610a2a90614547565b60405180910390fd5b6000610a3f600b61191e565b9050601e610a57600a8361192c90919063ffffffff16565b10610a97576040517f08c379a0000000000000000000000000000000000000000000000000000000008152600401610a8e906144c7565b60405180910390fd5b60005b600a811015610abe57610aab611942565b8080610ab690614945565b915050610a9a565b5050565b6000600880549050905090565b610ae0610ada61185d565b82611967565b610b1f576040517f08c379a0000000000000000000000000000000000000000000000000000000008152600401610b16906145c7565b60405180910390fd5b610b2a838383611a45565b505050565b6000610b3a8361102b565b8210610b7b576040517f08c379a0000000000000000000000000000000000000000000000000000000008152600401610b72906142e7565b60405180910390fd5b600660008473ffffffffffffffffffffffffffffffffffffffff1673ffffffffffffffffffffffffffffffffffffffff168152602001908152602001600020600083815260200190815260200160002054905092915050565b601e81565b6000610be5600b61191e565b9050601e610bfc838361192c90919063ffffffff16565b1115610c3d576040517f08c379a0000000000000000000000000000000000000000000000000000000008152600401610c34906142c7565b60405180910390fd5b600082118015610c4e575060038211155b610c8d576040517f08c379a0000000000000000000000000000000000000000000000000000000008152600401610c8490614407565b60405180910390fd5b60005b82811015610cb357610ca0611942565b8080610cab90614945565b915050610c90565b505050565b610cc061185d565b73ffffffffffffffffffffffffffffffffffffffff16610cde611278565b73ffffffffffffffffffffffffffffffffffffffff1614610d34576040517f08c379a0000000000000000000000000000000000000000000000000000000008152600401610d2b90614547565b60405180910390fd5b600047905060008111610d7c576040517f08c379a0000000000000000000000000000000000000000000000000000000008152600401610d7390614507565b60405180910390fd5b60003373ffffffffffffffffffffffffffffffffffffffff1682604051610da2906141b5565b60006040518083038185875af1925050503d8060008114610ddf576040519150601f19603f3d011682016040523d82523d6000602084013e610de4565b606091505b5050905080610e28576040517f08c379a0000000000000000000000000000000000000000000000000000000008152600401610e1f906145a7565b60405180910390fd5b5050565b610e478383836040518060200160405280600081525061134a565b505050565b6000610e56610ac2565b8210610e97576040517f08c379a0000000000000000000000000000000000000000000000000000000008152600401610e8e90614607565b60405180910390fd5b60088281548110610ed1577f4e487b7100000000000000000000000000000000000000000000000000000000600052603260045260246000fd5b90600052602060002001549050919050565b610eeb61185d565b73ffffffffffffffffffffffffffffffffffffffff16610f09611278565b73ffffffffffffffffffffffffffffffffffffffff1614610f5f576040517f08c379a0000000000000000000000000000000000000000000000000000000008152600401610f5690614547565b60405180910390fd5b80600c9080519060200190610f75929190612fe1565b5050565b6000806002600084815260200190815260200160002060009054906101000a900473ffffffffffffffffffffffffffffffffffffffff169050600073ffffffffffffffffffffffffffffffffffffffff168173ffffffffffffffffffffffffffffffffffffffff161415611022576040517f08c379a0000000000000000000000000000000000000000000000000000000008152600401611019906144a7565b60405180910390fd5b80915050919050565b60008073ffffffffffffffffffffffffffffffffffffffff168273ffffffffffffffffffffffffffffffffffffffff16141561109c576040517f08c379a000000000000000000000000000000000000000000000000000000000815260040161109390614467565b60405180910390fd5b600360008373ffffffffffffffffffffffffffffffffffffffff1673ffffffffffffffffffffffffffffffffffffffff168152602001908152602001600020549050919050565b6110eb61185d565b73ffffffffffffffffffffffffffffffffffffffff16611109611278565b73ffffffffffffffffffffffffffffffffffffffff161461115f576040517f08c379a000000000000000000000000000000000000000000000000000000000815260040161115690614547565b60405180910390fd5b6111696000611cac565b565b606060006111788361102b565b905060008167ffffffffffffffff8111156111bc577f4e487b7100000000000000000000000000000000000000000000000000000000600052604160045260246000fd5b6040519080825280602002602001820160405280156111ea5781602001602082028036833780820191505090505b50905060005b8281101561125a576112028582610b2f565b82828151811061123b577f4e487b7100000000000000000000000000000000000000000000000000000000600052603260045260246000fd5b602002602001018181525050808061125290614945565b9150506111f0565b508092505050919050565b60006002905090565b655af3107a400081565b6000600a60009054906101000a900473ffffffffffffffffffffffffffffffffffffffff16905090565b6060600180546112b190614913565b80601f01602080910402602001604051908101604052809291908181526020018280546112dd90614913565b801561132a5780601f106112ff5761010080835404028352916020019161132a565b820191906000526020600020905b81548152906001019060200180831161130d57829003601f168201915b5050505050905090565b61134661133f61185d565b8383611d72565b5050565b61135b61135561185d565b83611967565b61139a576040517f08c379a0000000000000000000000000000000000000000000000000000000008152600401611391906145c7565b60405180910390fd5b6113a684848484611edf565b50505050565b60606113b7826117f1565b6113f6576040517f08c379a00000000000000000000000000000000000000000000000000000000081526004016113ed90614567565b60405180910390fd5b6000611400611f3b565b90506000815111611420576040518060200160405280600081525061144b565b8061142a84611fcd565b60405160200161143b929190614191565b6040516020818303038152906040525b915050919050565b600c805461146090614913565b80601f016020809104026020016040519081016040528092919081815260200182805461148c90614913565b80156114d95780601f106114ae576101008083540402835291602001916114d9565b820191906000526020600020905b8154815290600101906020018083116114bc57829003601f168201915b505050505081565b6000600560008473ffffffffffffffffffffffffffffffffffffffff1673ffffffffffffffffffffffffffffffffffffffff16815260200190815260200160002060008373ffffffffffffffffffffffffffffffffffffffff1673ffffffffffffffffffffffffffffffffffffffff16815260200190815260200160002060009054906101000a900460ff16905092915050565b61157d61185d565b73ffffffffffffffffffffffffffffffffffffffff1661159b611278565b73ffffffffffffffffffffffffffffffffffffffff16146115f1576040517f08c379a00000000000000000000000000000000000000000000000000000000081526004016115e890614547565b60405180910390fd5b600073ffffffffffffffffffffffffffffffffffffffff168173ffffffffffffffffffffffffffffffffffffffff161415611661576040517f08c379a000000000000000000000000000000000000000000000000000000000815260040161165890614327565b60405180910390fd5b61166a81611cac565b50565b600087116116b0576040517f08c379a00000000000000000000000000000000000000000000000000000000081526004016116a790614387565b60405180910390fd5b6116e4336116bc611278565b898b73ffffffffffffffffffffffffffffffffffffffff1661217a909392919063ffffffff16565b600082828101906116f591906135cd565b90506117048160000151610bd9565b505050505050505050565b60007f80ac58cd000000000000000000000000000000000000000000000000000000007bffffffffffffffffffffffffffffffffffffffffffffffffffffffff1916827bffffffffffffffffffffffffffffffffffffffffffffffffffffffff191614806117da57507f5b5e139f000000000000000000000000000000000000000000000000000000007bffffffffffffffffffffffffffffffffffffffffffffffffffffffff1916827bffffffffffffffffffffffffffffffffffffffffffffffffffffffff1916145b806117ea57506117e982612327565b5b9050919050565b60008073ffffffffffffffffffffffffffffffffffffffff166002600084815260200190815260200160002060009054906101000a900473ffffffffffffffffffffffffffffffffffffffff1673ffffffffffffffffffffffffffffffffffffffff1614159050919050565b600033905090565b816004600083815260200190815260200160002060006101000a81548173ffffffffffffffffffffffffffffffffffffffff021916908373ffffffffffffffffffffffffffffffffffffffff160217905550808273ffffffffffffffffffffffffffffffffffffffff166118d883610f79565b73ffffffffffffffffffffffffffffffffffffffff167f8c5be1e5ebec7d5bd14f71427d1e84f3dd0314c0f7b2291e5b200ac8c7c3b92560405160405180910390a45050565b600081600001549050919050565b6000818361193a9190614795565b905092915050565b600061194e600b61191e565b905061195a3282612391565b611964600b6123af565b50565b6000611972826117f1565b6119b1576040517f08c379a00000000000000000000000000000000000000000000000000000000081526004016119a890614427565b60405180910390fd5b60006119bc83610f79565b90508073ffffffffffffffffffffffffffffffffffffffff168473ffffffffffffffffffffffffffffffffffffffff161480611a2b57508373ffffffffffffffffffffffffffffffffffffffff16611a1384610815565b73ffffffffffffffffffffffffffffffffffffffff16145b80611a3c5750611a3b81856114e1565b5b91505092915050565b8273ffffffffffffffffffffffffffffffffffffffff16611a6582610f79565b73ffffffffffffffffffffffffffffffffffffffff1614611abb576040517f08c379a0000000000000000000000000000000000000000000000000000000008152600401611ab290614347565b60405180910390fd5b600073ffffffffffffffffffffffffffffffffffffffff168273ffffffffffffffffffffffffffffffffffffffff161415611b2b576040517f08c379a0000000000000000000000000000000000000000000000000000000008152600401611b22906143a7565b60405180910390fd5b611b368383836123c5565b611b41600082611865565b6001600360008573ffffffffffffffffffffffffffffffffffffffff1673ffffffffffffffffffffffffffffffffffffffff1681526020019081526020016000206000828254611b91919061481c565b925050819055506001600360008473ffffffffffffffffffffffffffffffffffffffff1673ffffffffffffffffffffffffffffffffffffffff1681526020019081526020016000206000828254611be89190614795565b92505081905550816002600083815260200190815260200160002060006101000a81548173ffffffffffffffffffffffffffffffffffffffff021916908373ffffffffffffffffffffffffffffffffffffffff160217905550808273ffffffffffffffffffffffffffffffffffffffff168473ffffffffffffffffffffffffffffffffffffffff167fddf252ad1be2c89b69c2b068fc378daa952ba7f163c4a11628f55a4df523b3ef60405160405180910390a4611ca78383836124d9565b505050565b6000600a60009054906101000a900473ffffffffffffffffffffffffffffffffffffffff16905081600a60006101000a81548173ffffffffffffffffffffffffffffffffffffffff021916908373ffffffffffffffffffffffffffffffffffffffff1602179055508173ffffffffffffffffffffffffffffffffffffffff168173ffffffffffffffffffffffffffffffffffffffff167f8be0079c531659141344cd1fd0a4f28419497f9722a3daafe3b4186f6b6457e060405160405180910390a35050565b8173ffffffffffffffffffffffffffffffffffffffff168373ffffffffffffffffffffffffffffffffffffffff161415611de1576040517f08c379a0000000000000000000000000000000000000000000000000000000008152600401611dd8906143c7565b60405180910390fd5b80600560008573ffffffffffffffffffffffffffffffffffffffff1673ffffffffffffffffffffffffffffffffffffffff16815260200190815260200160002060008473ffffffffffffffffffffffffffffffffffffffff1673ffffffffffffffffffffffffffffffffffffffff16815260200190815260200160002060006101000a81548160ff0219169083151502179055508173ffffffffffffffffffffffffffffffffffffffff168373ffffffffffffffffffffffffffffffffffffffff167f17307eab39ab6107e8899845ad3d59bd9653f200f220920489ca2b5937696c3183604051611ed2919061428a565b60405180910390a3505050565b611eea848484611a45565b611ef6848484846124de565b611f35576040517f08c379a0000000000000000000000000000000000000000000000000000000008152600401611f2c90614307565b60405180910390fd5b50505050565b6060600c8054611f4a90614913565b80601f0160208091040260200160405190810160405280929190818152602001828054611f7690614913565b8015611fc35780601f10611f9857610100808354040283529160200191611fc3565b820191906000526020600020905b815481529060010190602001808311611fa657829003601f168201915b5050505050905090565b60606000821415612015576040518060400160405280600181526020017f30000000000000000000000000000000000000000000000000000000000000008152509050612175565b600082905060005b6000821461204757808061203090614945565b915050600a8261204091906147eb565b915061201d565b60008167ffffffffffffffff811115612089577f4e487b7100000000000000000000000000000000000000000000000000000000600052604160045260246000fd5b6040519080825280601f01601f1916602001820160405280156120bb5781602001600182028036833780820191505090505b5090505b6000851461216e576001826120d4919061481c565b9150600a856120e3919061498e565b60306120ef9190614795565b60f81b81838151811061212b577f4e487b7100000000000000000000000000000000000000000000000000000000600052603260045260246000fd5b60200101907effffffffffffffffffffffffffffffffffffffffffffffffffffffffffffff1916908160001a905350600a8561216791906147eb565b94506120bf565b8093505050505b919050565b600081141561218857612321565b61219184612675565b156122f2573373ffffffffffffffffffffffffffffffffffffffff168373ffffffffffffffffffffffffffffffffffffffff161480156121d15750803410155b612210576040517f08c379a000000000000000000000000000000000000000000000000000000000815260040161220790614487565b60405180910390fd5b3073ffffffffffffffffffffffffffffffffffffffff168273ffffffffffffffffffffffffffffffffffffffff161461228b578173ffffffffffffffffffffffffffffffffffffffff166108fc829081150290604051600060405180830381858888f19350505050158015612289573d6000803e3d6000fd5b505b803411156122ed573373ffffffffffffffffffffffffffffffffffffffff166108fc6122c083346126f790919063ffffffff16565b9081150290604051600060405180830381858888f193505050501580156122eb573d6000803e3d6000fd5b505b612320565b61231f8383838773ffffffffffffffffffffffffffffffffffffffff1661270d909392919063ffffffff16565b5b5b50505050565b60007f01ffc9a7000000000000000000000000000000000000000000000000000000007bffffffffffffffffffffffffffffffffffffffffffffffffffffffff1916827bffffffffffffffffffffffffffffffffffffffffffffffffffffffff1916149050919050565b6123ab828260405180602001604052806000815250612796565b5050565b6001816000016000828254019250508190555050565b6123d08383836127f1565b600073ffffffffffffffffffffffffffffffffffffffff168373ffffffffffffffffffffffffffffffffffffffff1614156124135761240e816127f6565b612452565b8173ffffffffffffffffffffffffffffffffffffffff168373ffffffffffffffffffffffffffffffffffffffff161461245157612450838261283f565b5b5b600073ffffffffffffffffffffffffffffffffffffffff168273ffffffffffffffffffffffffffffffffffffffff16141561249557612490816129ac565b6124d4565b8273ffffffffffffffffffffffffffffffffffffffff168273ffffffffffffffffffffffffffffffffffffffff16146124d3576124d28282612aef565b5b5b505050565b505050565b60006124ff8473ffffffffffffffffffffffffffffffffffffffff16612b6e565b15612668578373ffffffffffffffffffffffffffffffffffffffff1663150b7a0261252861185d565b8786866040518563ffffffff1660e01b815260040161254a949392919061421c565b602060405180830381600087803b15801561256457600080fd5b505af192505050801561259557506040513d601f19601f820116820180604052508101906125929190613563565b60015b612618573d80600081146125c5576040519150601f19603f3d011682016040523d82523d6000602084013e6125ca565b606091505b50600081511415612610576040517f08c379a000000000000000000000000000000000000000000000000000000000815260040161260790614307565b60405180910390fd5b805181602001fd5b63150b7a0260e01b7bffffffffffffffffffffffffffffffffffffffffffffffffffffffff1916817bffffffffffffffffffffffffffffffffffffffffffffffffffffffff19161491505061266d565b600190505b949350505050565b60008073ffffffffffffffffffffffffffffffffffffffff168273ffffffffffffffffffffffffffffffffffffffff1614806126f0575073eeeeeeeeeeeeeeeeeeeeeeeeeeeeeeeeeeeeeeee73ffffffffffffffffffffffffffffffffffffffff168273ffffffffffffffffffffffffffffffffffffffff16145b9050919050565b60008183612705919061481c565b905092915050565b612790846323b872dd60e01b85858560405160240161272e939291906141e5565b604051602081830303815290604052907bffffffffffffffffffffffffffffffffffffffffffffffffffffffff19166020820180517bffffffffffffffffffffffffffffffffffffffffffffffffffffffff8381831617835250505050612bad565b50505050565b6127a08383612c74565b6127ad60008484846124de565b6127ec576040517f08c379a00000000000000000000000000000000000000000000000000000000081526004016127e390614307565b60405180910390fd5b505050565b505050565b6008805490506009600083815260200190815260200160002081905550600881908060018154018082558091505060019003906000526020600020016000909190919091505550565b6000600161284c8461102b565b612856919061481c565b905060006007600084815260200190815260200160002054905081811461293b576000600660008673ffffffffffffffffffffffffffffffffffffffff1673ffffffffffffffffffffffffffffffffffffffff168152602001908152602001600020600084815260200190815260200160002054905080600660008773ffffffffffffffffffffffffffffffffffffffff1673ffffffffffffffffffffffffffffffffffffffff168152602001908152602001600020600084815260200190815260200160002081905550816007600083815260200190815260200160002081905550505b6007600084815260200190815260200160002060009055600660008573ffffffffffffffffffffffffffffffffffffffff1673ffffffffffffffffffffffffffffffffffffffff16815260200190815260200160002060008381526020019081526020016000206000905550505050565b600060016008805490506129c0919061481c565b9050600060096000848152602001908152602001600020549050600060088381548110612a16577f4e487b7100000000000000000000000000000000000000000000000000000000600052603260045260246000fd5b906000526020600020015490508060088381548110612a5e577f4e487b7100000000000000000000000000000000000000000000000000000000600052603260045260246000fd5b906000526020600020018190555081600960008381526020019081526020016000208190555060096000858152602001908152602001600020600090556008805480612ad3577f4e487b7100000000000000000000000000000000000000000000000000000000600052603160045260246000fd5b6001900381819060005260206000200160009055905550505050565b6000612afa8361102b565b905081600660008573ffffffffffffffffffffffffffffffffffffffff1673ffffffffffffffffffffffffffffffffffffffff168152602001908152602001600020600083815260200190815260200160002081905550806007600084815260200190815260200160002081905550505050565b6000808273ffffffffffffffffffffffffffffffffffffffff16803b806020016040519081016040528181526000908060200190933c51119050919050565b6000612c0f826040518060400160405280602081526020017f5361666545524332303a206c6f772d6c6576656c2063616c6c206661696c65648152508573ffffffffffffffffffffffffffffffffffffffff16612e4e9092919063ffffffff16565b9050600081511115612c6f5780806020019051810190612c2f9190613511565b612c6e576040517f08c379a0000000000000000000000000000000000000000000000000000000008152600401612c6590614627565b60405180910390fd5b5b505050565b600073ffffffffffffffffffffffffffffffffffffffff168273ffffffffffffffffffffffffffffffffffffffff161415612ce4576040517f08c379a0000000000000000000000000000000000000000000000000000000008152600401612cdb906144e7565b60405180910390fd5b612ced816117f1565b15612d2d576040517f08c379a0000000000000000000000000000000000000000000000000000000008152600401612d2490614367565b60405180910390fd5b612d39600083836123c5565b6001600360008473ffffffffffffffffffffffffffffffffffffffff1673ffffffffffffffffffffffffffffffffffffffff1681526020019081526020016000206000828254612d899190614795565b92505081905550816002600083815260200190815260200160002060006101000a81548173ffffffffffffffffffffffffffffffffffffffff021916908373ffffffffffffffffffffffffffffffffffffffff160217905550808273ffffffffffffffffffffffffffffffffffffffff16600073ffffffffffffffffffffffffffffffffffffffff167fddf252ad1be2c89b69c2b068fc378daa952ba7f163c4a11628f55a4df523b3ef60405160405180910390a4612e4a600083836124d9565b5050565b6060612e5d8484600085612e66565b90509392505050565b606082471015612eab576040517f08c379a0000000000000000000000000000000000000000000000000000000008152600401612ea2906143e7565b60405180910390fd5b612eb485612b6e565b612ef3576040517f08c379a0000000000000000000000000000000000000000000000000000000008152600401612eea906145e7565b60405180910390fd5b6000808673ffffffffffffffffffffffffffffffffffffffff168587604051612f1c919061417a565b60006040518083038185875af1925050503d8060008114612f59576040519150601f19603f3d011682016040523d82523d6000602084013e612f5e565b606091505b5091509150612f6e828286612f7a565b92505050949350505050565b60608315612f8a57829050612fda565b600083511115612f9d5782518084602001fd5b816040517f08c379a0000000000000000000000000000000000000000000000000000000008152600401612fd191906142a5565b60405180910390fd5b9392505050565b828054612fed90614913565b90600052602060002090601f01602090048101928261300f5760008555613056565b82601f1061302857805160ff1916838001178555613056565b82800160010185558215613056579182015b8281111561305557825182559160200191906001019061303a565b5b5090506130639190613067565b5090565b5b80821115613080576000816000905550600101613068565b5090565b6000613097613092846146ae565b61467d565b9050828152602081018484840111156130af57600080fd5b6130ba8482856148d1565b509392505050565b60006130d56130d0846146de565b61467d565b9050828152602081018484840111156130ed57600080fd5b6130f88482856148d1565b509392505050565b60008135905061310f81614a8c565b92915050565b60008135905061312481614aa3565b92915050565b60008151905061313981614aa3565b92915050565b60008135905061314e81614aba565b92915050565b60008151905061316381614aba565b92915050565b60008083601f84011261317b57600080fd5b8235905067ffffffffffffffff81111561319457600080fd5b6020830191508360018202830111156131ac57600080fd5b9250929050565b600082601f8301126131c457600080fd5b81356131d4848260208601613084565b91505092915050565b60008083601f8401126131ef57600080fd5b8235905067ffffffffffffffff81111561320857600080fd5b60208301915083600182028301111561322057600080fd5b9250929050565b600082601f83011261323857600080fd5b81356132488482602086016130c2565b91505092915050565b60006020828403121561326357600080fd5b61326d602061467d565b9050600061327d84828501613289565b60008301525092915050565b60008135905061329881614ad1565b92915050565b6000602082840312156132b057600080fd5b60006132be84828501613100565b91505092915050565b600080604083850312156132da57600080fd5b60006132e885828601613100565b92505060206132f985828601613100565b9150509250929050565b60008060006060848603121561331857600080fd5b600061332686828701613100565b935050602061333786828701613100565b925050604061334886828701613289565b9150509250925092565b6000806000806080858703121561336857600080fd5b600061337687828801613100565b945050602061338787828801613100565b935050604061339887828801613289565b925050606085013567ffffffffffffffff8111156133b557600080fd5b6133c1878288016131b3565b91505092959194509250565b600080604083850312156133e057600080fd5b60006133ee85828601613100565b92505060206133ff85828601613115565b9150509250929050565b6000806040838503121561341c57600080fd5b600061342a85828601613100565b925050602061343b85828601613289565b9150509250929050565b60008060008060008060008060a0898b03121561346157600080fd5b600061346f8b828c01613100565b98505060206134808b828c01613289565b975050604089013567ffffffffffffffff81111561349d57600080fd5b6134a98b828c01613169565b9650965050606089013567ffffffffffffffff8111156134c857600080fd5b6134d48b828c016131dd565b9450945050608089013567ffffffffffffffff8111156134f357600080fd5b6134ff8b828c01613169565b92509250509295985092959890939650565b60006020828403121561352357600080fd5b60006135318482850161312a565b91505092915050565b60006020828403121561354c57600080fd5b600061355a8482850161313f565b91505092915050565b60006020828403121561357557600080fd5b600061358384828501613154565b91505092915050565b60006020828403121561359e57600080fd5b600082013567ffffffffffffffff8111156135b857600080fd5b6135c484828501613227565b91505092915050565b6000602082840312156135df57600080fd5b60006135ed84828501613251565b91505092915050565b60006020828403121561360857600080fd5b600061361684828501613289565b91505092915050565b600061362b838361414d565b60208301905092915050565b61364081614850565b82525050565b60006136518261471e565b61365b818561474c565b93506136668361470e565b8060005b8381101561369757815161367e888261361f565b97506136898361473f565b92505060018101905061366a565b5085935050505092915050565b6136ad81614862565b82525050565b60006136be82614729565b6136c8818561475d565b93506136d88185602086016148e0565b6136e181614a7b565b840191505092915050565b60006136f782614729565b613701818561476e565b93506137118185602086016148e0565b80840191505092915050565b600061372882614734565b6137328185614779565b93506137428185602086016148e0565b61374b81614a7b565b840191505092915050565b600061376182614734565b61376b818561478a565b935061377b8185602086016148e0565b80840191505092915050565b6000613794601083614779565b91507f4e6f7420656e6f756768204e46547321000000000000000000000000000000006000830152602082019050919050565b60006137d4602b83614779565b91507f455243373231456e756d657261626c653a206f776e657220696e646578206f7560008301527f74206f6620626f756e64730000000000000000000000000000000000000000006020830152604082019050919050565b600061383a603283614779565b91507f4552433732313a207472616e7366657220746f206e6f6e20455243373231526560008301527f63656976657220696d706c656d656e74657200000000000000000000000000006020830152604082019050919050565b60006138a0602683614779565b91507f4f776e61626c653a206e6577206f776e657220697320746865207a65726f206160008301527f64647265737300000000000000000000000000000000000000000000000000006020830152604082019050919050565b6000613906602583614779565b91507f4552433732313a207472616e736665722066726f6d20696e636f72726563742060008301527f6f776e65720000000000000000000000000000000000000000000000000000006020830152604082019050919050565b600061396c601c83614779565b91507f4552433732313a20746f6b656e20616c7265616479206d696e746564000000006000830152602082019050919050565b60006139ac600e83614779565b91507f696e76616c696420616d6f756e740000000000000000000000000000000000006000830152602082019050919050565b60006139ec602483614779565b91507f4552433732313a207472616e7366657220746f20746865207a65726f2061646460008301527f72657373000000000000000000000000000000000000000000000000000000006020830152604082019050919050565b6000613a52601983614779565b91507f4552433732313a20617070726f766520746f2063616c6c6572000000000000006000830152602082019050919050565b6000613a92602683614779565b91507f416464726573733a20696e73756666696369656e742062616c616e636520666f60008301527f722063616c6c00000000000000000000000000000000000000000000000000006020830152604082019050919050565b6000613af8602583614779565b91507f43616e6e6f74206d696e7420737065636966696564206e756d626572206f662060008301527f4e4654732e0000000000000000000000000000000000000000000000000000006020830152604082019050919050565b6000613b5e602c83614779565b91507f4552433732313a206f70657261746f7220717565727920666f72206e6f6e657860008301527f697374656e7420746f6b656e00000000000000000000000000000000000000006020830152604082019050919050565b6000613bc4603883614779565b91507f4552433732313a20617070726f76652063616c6c6572206973206e6f74206f7760008301527f6e6572206e6f7220617070726f76656420666f7220616c6c00000000000000006020830152604082019050919050565b6000613c2a602a83614779565b91507f4552433732313a2062616c616e636520717565727920666f7220746865207a6560008301527f726f2061646472657373000000000000000000000000000000000000000000006020830152604082019050919050565b6000613c90602b83614779565b91507f57726f6e6720757365616765206f66204554482e756e6976657273616c54726160008301527f6e7366657246726f6d28290000000000000000000000000000000000000000006020830152604082019050919050565b6000613cf6602983614779565b91507f4552433732313a206f776e657220717565727920666f72206e6f6e657869737460008301527f656e7420746f6b656e00000000000000000000000000000000000000000000006020830152604082019050919050565b6000613d5c600f83614779565b91507f4e6f7420656e6f756768204e46547300000000000000000000000000000000006000830152602082019050919050565b6000613d9c602083614779565b91507f4552433732313a206d696e7420746f20746865207a65726f20616464726573736000830152602082019050919050565b6000613ddc601983614779565b91507f4e6f206574686572206c65667420746f207769746864726177000000000000006000830152602082019050919050565b6000613e1c602c83614779565b91507f4552433732313a20617070726f76656420717565727920666f72206e6f6e657860008301527f697374656e7420746f6b656e00000000000000000000000000000000000000006020830152604082019050919050565b6000613e82602083614779565b91507f4f776e61626c653a2063616c6c6572206973206e6f7420746865206f776e65726000830152602082019050919050565b6000613ec2602f83614779565b91507f4552433732314d657461646174613a2055524920717565727920666f72206e6f60008301527f6e6578697374656e7420746f6b656e00000000000000000000000000000000006020830152604082019050919050565b6000613f28602183614779565b91507f4552433732313a20617070726f76616c20746f2063757272656e74206f776e6560008301527f72000000000000000000000000000000000000000000000000000000000000006020830152604082019050919050565b6000613f8e60008361476e565b9150600082019050919050565b6000613fa8601083614779565b91507f5472616e73666572206661696c65642e000000000000000000000000000000006000830152602082019050919050565b6000613fe8603183614779565b91507f4552433732313a207472616e736665722063616c6c6572206973206e6f74206f60008301527f776e6572206e6f7220617070726f7665640000000000000000000000000000006020830152604082019050919050565b600061404e601d83614779565b91507f416464726573733a2063616c6c20746f206e6f6e2d636f6e74726163740000006000830152602082019050919050565b600061408e602c83614779565b91507f455243373231456e756d657261626c653a20676c6f62616c20696e646578206f60008301527f7574206f6620626f756e647300000000000000000000000000000000000000006020830152604082019050919050565b60006140f4602a83614779565b91507f5361666545524332303a204552433230206f7065726174696f6e20646964206e60008301527f6f742073756363656564000000000000000000000000000000000000000000006020830152604082019050919050565b614156816148ba565b82525050565b614165816148ba565b82525050565b614174816148c4565b82525050565b600061418682846136ec565b915081905092915050565b600061419d8285613756565b91506141a98284613756565b91508190509392505050565b60006141c082613f81565b9150819050919050565b60006020820190506141df6000830184613637565b92915050565b60006060820190506141fa6000830186613637565b6142076020830185613637565b614214604083018461415c565b949350505050565b60006080820190506142316000830187613637565b61423e6020830186613637565b61424b604083018561415c565b818103606083015261425d81846136b3565b905095945050505050565b600060208201905081810360008301526142828184613646565b905092915050565b600060208201905061429f60008301846136a4565b92915050565b600060208201905081810360008301526142bf818461371d565b905092915050565b600060208201905081810360008301526142e081613787565b9050919050565b60006020820190508181036000830152614300816137c7565b9050919050565b600060208201905081810360008301526143208161382d565b9050919050565b6000602082019050818103600083015261434081613893565b9050919050565b60006020820190508181036000830152614360816138f9565b9050919050565b600060208201905081810360008301526143808161395f565b9050919050565b600060208201905081810360008301526143a08161399f565b9050919050565b600060208201905081810360008301526143c0816139df565b9050919050565b600060208201905081810360008301526143e081613a45565b9050919050565b6000602082019050818103600083015261440081613a85565b9050919050565b6000602082019050818103600083015261442081613aeb565b9050919050565b6000602082019050818103600083015261444081613b51565b9050919050565b6000602082019050818103600083015261446081613bb7565b9050919050565b6000602082019050818103600083015261448081613c1d565b9050919050565b600060208201905081810360008301526144a081613c83565b9050919050565b600060208201905081810360008301526144c081613ce9565b9050919050565b600060208201905081810360008301526144e081613d4f565b9050919050565b6000602082019050818103600083015261450081613d8f565b9050919050565b6000602082019050818103600083015261452081613dcf565b9050919050565b6000602082019050818103600083015261454081613e0f565b9050919050565b6000602082019050818103600083015261456081613e75565b9050919050565b6000602082019050818103600083015261458081613eb5565b9050919050565b600060208201905081810360008301526145a081613f1b565b9050919050565b600060208201905081810360008301526145c081613f9b565b9050919050565b600060208201905081810360008301526145e081613fdb565b9050919050565b6000602082019050818103600083015261460081614041565b9050919050565b6000602082019050818103600083015261462081614081565b9050919050565b60006020820190508181036000830152614640816140e7565b9050919050565b600060208201905061465c600083018461415c565b92915050565b6000602082019050614677600083018461416b565b92915050565b6000604051905081810181811067ffffffffffffffff821117156146a4576146a3614a4c565b5b8060405250919050565b600067ffffffffffffffff8211156146c9576146c8614a4c565b5b601f19601f8301169050602081019050919050565b600067ffffffffffffffff8211156146f9576146f8614a4c565b5b601f19601f8301169050602081019050919050565b6000819050602082019050919050565b600081519050919050565b600081519050919050565b600081519050919050565b6000602082019050919050565b600082825260208201905092915050565b600082825260208201905092915050565b600081905092915050565b600082825260208201905092915050565b600081905092915050565b60006147a0826148ba565b91506147ab836148ba565b9250827fffffffffffffffffffffffffffffffffffffffffffffffffffffffffffffffff038211156147e0576147df6149bf565b5b828201905092915050565b60006147f6826148ba565b9150614801836148ba565b925082614811576148106149ee565b5b828204905092915050565b6000614827826148ba565b9150614832836148ba565b925082821015614845576148446149bf565b5b828203905092915050565b600061485b8261489a565b9050919050565b60008115159050919050565b60007fffffffff0000000000000000000000000000000000000000000000000000000082169050919050565b600073ffffffffffffffffffffffffffffffffffffffff82169050919050565b6000819050919050565b600060ff82169050919050565b82818337600083830152505050565b60005b838110156148fe5780820151818401526020810190506148e3565b8381111561490d576000848401525b50505050565b6000600282049050600182168061492b57607f821691505b6020821081141561493f5761493e614a1d565b5b50919050565b6000614950826148ba565b91507fffffffffffffffffffffffffffffffffffffffffffffffffffffffffffffffff821415614983576149826149bf565b5b600182019050919050565b6000614999826148ba565b91506149a4836148ba565b9250826149b4576149b36149ee565b5b828206905092915050565b7f4e487b7100000000000000000000000000000000000000000000000000000000600052601160045260246000fd5b7f4e487b7100000000000000000000000000000000000000000000000000000000600052601260045260246000fd5b7f4e487b7100000000000000000000000000000000000000000000000000000000600052602260045260246000fd5b7f4e487b7100000000000000000000000000000000000000000000000000000000600052604160045260246000fd5b6000601f19601f8301169050919050565b614a9581614850565b8114614aa057600080fd5b50565b614aac81614862565b8114614ab757600080fd5b50565b614ac38161486e565b8114614ace57600080fd5b50565b614ada816148ba565b8114614ae557600080fd5b5056fea264697066735822122036ac92712057a8a10399c62dacbea74a249da1c265ebfd313c06ff3dd469f67364736f6c63430008000033",
  "linkReferences": {},
  "deployedLinkReferences": {}
}