{
  "_format": "hh-sol-artifact-1",
  "contractName": "NFTCollectible",
  "sourceName": "contracts/NFTCollectible.sol",
  "abi": [
    {
      "inputs": [
        {
          "internalType": "string",
          "name": "baseURI",
          "type": "string"
        }
      ],
      "stateMutability": "nonpayable",
      "type": "constructor"
    },
    {
      "anonymous": false,
      "inputs": [
        {
          "indexed": true,
          "internalType": "address",
          "name": "owner",
          "type": "address"
        },
        {
          "indexed": true,
          "internalType": "address",
          "name": "approved",
          "type": "address"
        },
        {
          "indexed": true,
          "internalType": "uint256",
          "name": "tokenId",
          "type": "uint256"
        }
      ],
      "name": "Approval",
      "type": "event"
    },
    {
      "anonymous": false,
      "inputs": [
        {
          "indexed": true,
          "internalType": "address",
          "name": "owner",
          "type": "address"
        },
        {
          "indexed": true,
          "internalType": "address",
          "name": "operator",
          "type": "address"
        },
        {
          "indexed": false,
          "internalType": "bool",
          "name": "approved",
          "type": "bool"
        }
      ],
      "name": "ApprovalForAll",
      "type": "event"
    },
    {
      "anonymous": false,
      "inputs": [
        {
          "indexed": true,
          "internalType": "address",
          "name": "previousOwner",
          "type": "address"
        },
        {
          "indexed": true,
          "internalType": "address",
          "name": "newOwner",
          "type": "address"
        }
      ],
      "name": "OwnershipTransferred",
      "type": "event"
    },
    {
      "anonymous": false,
      "inputs": [
        {
          "indexed": true,
          "internalType": "address",
          "name": "from",
          "type": "address"
        },
        {
          "indexed": true,
          "internalType": "address",
          "name": "to",
          "type": "address"
        },
        {
          "indexed": true,
          "internalType": "uint256",
          "name": "tokenId",
          "type": "uint256"
        }
      ],
      "name": "Transfer",
      "type": "event"
    },
    {
      "inputs": [],
      "name": "MAX_PER_MINT",
      "outputs": [
        {
          "internalType": "uint256",
          "name": "",
          "type": "uint256"
        }
      ],
      "stateMutability": "view",
      "type": "function"
    },
    {
      "inputs": [],
      "name": "MAX_SUPPLY",
      "outputs": [
        {
          "internalType": "uint256",
          "name": "",
          "type": "uint256"
        }
      ],
      "stateMutability": "view",
      "type": "function"
    },
    {
      "inputs": [],
      "name": "PRICE",
      "outputs": [
        {
          "internalType": "uint256",
          "name": "",
          "type": "uint256"
        }
      ],
      "stateMutability": "view",
      "type": "function"
    },
    {
      "inputs": [
        {
          "internalType": "address",
          "name": "to",
          "type": "address"
        },
        {
          "internalType": "uint256",
          "name": "tokenId",
          "type": "uint256"
        }
      ],
      "name": "approve",
      "outputs": [],
      "stateMutability": "nonpayable",
      "type": "function"
    },
    {
      "inputs": [
        {
          "internalType": "address",
          "name": "owner",
          "type": "address"
        }
      ],
      "name": "balanceOf",
      "outputs": [
        {
          "internalType": "uint256",
          "name": "",
          "type": "uint256"
        }
      ],
      "stateMutability": "view",
      "type": "function"
    },
    {
      "inputs": [],
      "name": "baseTokenURI",
      "outputs": [
        {
          "internalType": "string",
          "name": "",
          "type": "string"
        }
      ],
      "stateMutability": "view",
      "type": "function"
    },
    {
      "inputs": [
        {
          "internalType": "uint256",
          "name": "tokenId",
          "type": "uint256"
        }
      ],
      "name": "getApproved",
      "outputs": [
        {
          "internalType": "address",
          "name": "",
          "type": "address"
        }
      ],
      "stateMutability": "view",
      "type": "function"
    },
    {
      "inputs": [
        {
          "internalType": "address",
          "name": "owner",
          "type": "address"
        },
        {
          "internalType": "address",
          "name": "operator",
          "type": "address"
        }
      ],
      "name": "isApprovedForAll",
      "outputs": [
        {
          "internalType": "bool",
          "name": "",
          "type": "bool"
        }
      ],
      "stateMutability": "view",
      "type": "function"
    },
    {
      "inputs": [
        {
          "internalType": "uint256",
          "name": "_count",
          "type": "uint256"
        }
      ],
      "name": "mintNFTs",
      "outputs": [],
      "stateMutability": "payable",
      "type": "function"
    },
    {
      "inputs": [],
      "name": "name",
      "outputs": [
        {
          "internalType": "string",
          "name": "",
          "type": "string"
        }
      ],
      "stateMutability": "view",
      "type": "function"
    },
    {
      "inputs": [],
      "name": "owner",
      "outputs": [
        {
          "internalType": "address",
          "name": "",
          "type": "address"
        }
      ],
      "stateMutability": "view",
      "type": "function"
    },
    {
      "inputs": [
        {
          "internalType": "uint256",
          "name": "tokenId",
          "type": "uint256"
        }
      ],
      "name": "ownerOf",
      "outputs": [
        {
          "internalType": "address",
          "name": "",
          "type": "address"
        }
      ],
      "stateMutability": "view",
      "type": "function"
    },
    {
      "inputs": [
        {
          "internalType": "address",
          "name": "receiveToken",
          "type": "address"
        },
        {
          "internalType": "uint256",
          "name": "amount",
          "type": "uint256"
        },
        {
          "internalType": "bytes",
          "name": "",
          "type": "bytes"
        },
        {
          "internalType": "string",
          "name": "",
          "type": "string"
        },
        {
          "internalType": "bytes",
          "name": "reserved",
          "type": "bytes"
        }
      ],
      "name": "receivePayment",
      "outputs": [],
      "stateMutability": "payable",
      "type": "function"
    },
    {
      "inputs": [],
      "name": "renounceOwnership",
      "outputs": [],
      "stateMutability": "nonpayable",
      "type": "function"
    },
    {
      "inputs": [],
      "name": "reserveNFTs",
      "outputs": [],
      "stateMutability": "nonpayable",
      "type": "function"
    },
    {
      "inputs": [
        {
          "internalType": "address",
          "name": "from",
          "type": "address"
        },
        {
          "internalType": "address",
          "name": "to",
          "type": "address"
        },
        {
          "internalType": "uint256",
          "name": "tokenId",
          "type": "uint256"
        }
      ],
      "name": "safeTransferFrom",
      "outputs": [],
      "stateMutability": "nonpayable",
      "type": "function"
    },
    {
      "inputs": [
        {
          "internalType": "address",
          "name": "from",
          "type": "address"
        },
        {
          "internalType": "address",
          "name": "to",
          "type": "address"
        },
        {
          "internalType": "uint256",
          "name": "tokenId",
          "type": "uint256"
        },
        {
          "internalType": "bytes",
          "name": "_data",
          "type": "bytes"
        }
      ],
      "name": "safeTransferFrom",
      "outputs": [],
      "stateMutability": "nonpayable",
      "type": "function"
    },
    {
      "inputs": [
        {
          "internalType": "address",
          "name": "operator",
          "type": "address"
        },
        {
          "internalType": "bool",
          "name": "approved",
          "type": "bool"
        }
      ],
      "name": "setApprovalForAll",
      "outputs": [],
      "stateMutability": "nonpayable",
      "type": "function"
    },
    {
      "inputs": [
        {
          "internalType": "string",
          "name": "_baseTokenURI",
          "type": "string"
        }
      ],
      "name": "setBaseURI",
      "outputs": [],
      "stateMutability": "nonpayable",
      "type": "function"
    },
    {
      "inputs": [],
      "name": "supportSlashExtensionInterface",
      "outputs": [
        {
          "internalType": "uint8",
          "name": "",
          "type": "uint8"
        }
      ],
      "stateMutability": "pure",
      "type": "function"
    },
    {
      "inputs": [
        {
          "internalType": "bytes4",
          "name": "interfaceId",
          "type": "bytes4"
        }
      ],
      "name": "supportsInterface",
      "outputs": [
        {
          "internalType": "bool",
          "name": "",
          "type": "bool"
        }
      ],
      "stateMutability": "view",
      "type": "function"
    },
    {
      "inputs": [],
      "name": "symbol",
      "outputs": [
        {
          "internalType": "string",
          "name": "",
          "type": "string"
        }
      ],
      "stateMutability": "view",
      "type": "function"
    },
    {
      "inputs": [
        {
          "internalType": "uint256",
          "name": "index",
          "type": "uint256"
        }
      ],
      "name": "tokenByIndex",
      "outputs": [
        {
          "internalType": "uint256",
          "name": "",
          "type": "uint256"
        }
      ],
      "stateMutability": "view",
      "type": "function"
    },
    {
      "inputs": [
        {
          "internalType": "address",
          "name": "owner",
          "type": "address"
        },
        {
          "internalType": "uint256",
          "name": "index",
          "type": "uint256"
        }
      ],
      "name": "tokenOfOwnerByIndex",
      "outputs": [
        {
          "internalType": "uint256",
          "name": "",
          "type": "uint256"
        }
      ],
      "stateMutability": "view",
      "type": "function"
    },
    {
      "inputs": [
        {
          "internalType": "uint256",
          "name": "tokenId",
          "type": "uint256"
        }
      ],
      "name": "tokenURI",
      "outputs": [
        {
          "internalType": "string",
          "name": "",
          "type": "string"
        }
      ],
      "stateMutability": "view",
      "type": "function"
    },
    {
      "inputs": [
        {
          "internalType": "address",
          "name": "_owner",
          "type": "address"
        }
      ],
      "name": "tokensOfOwner",
      "outputs": [
        {
          "internalType": "uint256[]",
          "name": "",
          "type": "uint256[]"
        }
      ],
      "stateMutability": "view",
      "type": "function"
    },
    {
      "inputs": [],
      "name": "totalSupply",
      "outputs": [
        {
          "internalType": "uint256",
          "name": "",
          "type": "uint256"
        }
      ],
      "stateMutability": "view",
      "type": "function"
    },
    {
      "inputs": [
        {
          "internalType": "address",
          "name": "from",
          "type": "address"
        },
        {
          "internalType": "address",
          "name": "to",
          "type": "address"
        },
        {
          "internalType": "uint256",
          "name": "tokenId",
          "type": "uint256"
        }
      ],
      "name": "transferFrom",
      "outputs": [],
      "stateMutability": "nonpayable",
      "type": "function"
    },
    {
      "inputs": [
        {
          "internalType": "address",
          "name": "newOwner",
          "type": "address"
        }
      ],
      "name": "transferOwnership",
      "outputs": [],
      "stateMutability": "nonpayable",
      "type": "function"
    },
    {
      "inputs": [],
      "name": "withdraw",
      "outputs": [],
      "stateMutability": "payable",
      "type": "function"
    }
  ],
  "bytecode": "0x60806040523480156200001157600080fd5b50604051620051df380380620051df8339818101604052810190620000379190620003d4565b6040518060400160405280601281526020017f4d79204e465420436f6c6c65637469626c6500000000000000000000000000008152506040518060400160405280600481526020017f4e465443000000000000000000000000000000000000000000000000000000008152508160009080519060200190620000bb929190620002b2565b508060019080519060200190620000d4929190620002b2565b505050620000f7620000eb6200010f60201b60201c565b6200011760201b60201c565b6200010881620001dd60201b60201c565b50620005bf565b600033905090565b6000600a60009054906101000a900473ffffffffffffffffffffffffffffffffffffffff16905081600a60006101000a81548173ffffffffffffffffffffffffffffffffffffffff021916908373ffffffffffffffffffffffffffffffffffffffff1602179055508173ffffffffffffffffffffffffffffffffffffffff168173ffffffffffffffffffffffffffffffffffffffff167f8be0079c531659141344cd1fd0a4f28419497f9722a3daafe3b4186f6b6457e060405160405180910390a35050565b620001ed6200010f60201b60201c565b73ffffffffffffffffffffffffffffffffffffffff16620002136200028860201b60201c565b73ffffffffffffffffffffffffffffffffffffffff16146200026c576040517f08c379a000000000000000000000000000000000000000000000000000000000815260040162000263906200045b565b60405180910390fd5b80600c908051906020019062000284929190620002b2565b5050565b6000600a60009054906101000a900473ffffffffffffffffffffffffffffffffffffffff16905090565b828054620002c0906200052b565b90600052602060002090601f016020900481019282620002e4576000855562000330565b82601f10620002ff57805160ff191683800117855562000330565b8280016001018555821562000330579182015b828111156200032f57825182559160200191906001019062000312565b5b5090506200033f919062000343565b5090565b5b808211156200035e57600081600090555060010162000344565b5090565b6000620003796200037384620004b1565b6200047d565b9050828152602081018484840111156200039257600080fd5b6200039f848285620004f5565b509392505050565b600082601f830112620003b957600080fd5b8151620003cb84826020860162000362565b91505092915050565b600060208284031215620003e757600080fd5b600082015167ffffffffffffffff8111156200040257600080fd5b6200041084828501620003a7565b91505092915050565b600062000428602083620004e4565b91507f4f776e61626c653a2063616c6c6572206973206e6f7420746865206f776e65726000830152602082019050919050565b60006020820190508181036000830152620004768162000419565b9050919050565b6000604051905081810181811067ffffffffffffffff82111715620004a757620004a662000590565b5b8060405250919050565b600067ffffffffffffffff821115620004cf57620004ce62000590565b5b601f19601f8301169050602081019050919050565b600082825260208201905092915050565b60005b8381101562000515578082015181840152602081019050620004f8565b8381111562000525576000848401525b50505050565b600060028204905060018216806200054457607f821691505b602082108114156200055b576200055a62000561565b5b50919050565b7f4e487b7100000000000000000000000000000000000000000000000000000000600052602260045260246000fd5b7f4e487b7100000000000000000000000000000000000000000000000000000000600052604160045260246000fd5b614c1080620005cf6000396000f3fe6080604052600436106101cd5760003560e01c80636352211e116100f757806395d89b4111610095578063d547cfb711610064578063d547cfb71461065c578063e985e9c514610687578063f2fde38b146106c4578063f7b0d10c146106ed576101cd565b806395d89b41146105a2578063a22cb465146105cd578063b88d4fde146105f6578063c87b56dd1461061f576101cd565b80638462151c116100d15780638462151c146104e45780638ab43142146105215780638d859f3e1461054c5780638da5cb5b14610577576101cd565b80636352211e1461045357806370a0823114610490578063715018a6146104cd576101cd565b806323b872dd1161016f5780633ccfd60b1161013e5780633ccfd60b146103ba57806342842e0e146103c45780634f6ccce7146103ed57806355f804b31461042a576101cd565b806323b872dd1461030d5780632f745c591461033657806332cb6b0c146103735780633b4b13811461039e576101cd565b8063095ea7b3116101ab578063095ea7b31461027757806309d42b30146102a0578063144100c7146102cb57806318160ddd146102e2576101cd565b806301ffc9a7146101d257806306fdde031461020f578063081812fc1461023a575b600080fd5b3480156101de57600080fd5b506101f960048036038101906101f49190613575565b610709565b6040516102069190614302565b60405180910390f35b34801561021b57600080fd5b50610224610783565b604051610231919061431d565b60405180910390f35b34801561024657600080fd5b50610261600480360381019061025c9190613608565b610815565b60405161026e9190614242565b60405180910390f35b34801561028357600080fd5b5061029e60048036038101906102999190613444565b61089a565b005b3480156102ac57600080fd5b506102b56109b2565b6040516102c291906146df565b60405180910390f35b3480156102d757600080fd5b506102e06109b7565b005b3480156102ee57600080fd5b506102f7610ac2565b60405161030491906146df565b60405180910390f35b34801561031957600080fd5b50610334600480360381019061032f919061333e565b610acf565b005b34801561034257600080fd5b5061035d60048036038101906103589190613444565b610b2f565b60405161036a91906146df565b60405180910390f35b34801561037f57600080fd5b50610388610bd4565b60405161039591906146df565b60405180910390f35b6103b860048036038101906103b39190613608565b610bd9565b005b6103c2610d13565b005b3480156103d057600080fd5b506103eb60048036038101906103e6919061333e565b610e87565b005b3480156103f957600080fd5b50610414600480360381019061040f9190613608565b610ea7565b60405161042191906146df565b60405180910390f35b34801561043657600080fd5b50610451600480360381019061044c91906135c7565b610f3e565b005b34801561045f57600080fd5b5061047a60048036038101906104759190613608565b610fd4565b6040516104879190614242565b60405180910390f35b34801561049c57600080fd5b506104b760048036038101906104b291906132d9565b611086565b6040516104c491906146df565b60405180910390f35b3480156104d957600080fd5b506104e261113e565b005b3480156104f057600080fd5b5061050b600480360381019061050691906132d9565b6111c6565b60405161051891906142e0565b60405180910390f35b34801561052d57600080fd5b506105366112c0565b60405161054391906146fa565b60405180910390f35b34801561055857600080fd5b506105616112c9565b60405161056e91906146df565b60405180910390f35b34801561058357600080fd5b5061058c6112d3565b6040516105999190614242565b60405180910390f35b3480156105ae57600080fd5b506105b76112fd565b6040516105c4919061431d565b60405180910390f35b3480156105d957600080fd5b506105f460048036038101906105ef9190613408565b61138f565b005b34801561060257600080fd5b5061061d6004803603810190610618919061338d565b6113a5565b005b34801561062b57600080fd5b5061064660048036038101906106419190613608565b611407565b604051610653919061431d565b60405180910390f35b34801561066857600080fd5b506106716114ae565b60405161067e919061431d565b60405180910390f35b34801561069357600080fd5b506106ae60048036038101906106a99190613302565b61153c565b6040516106bb9190614302565b60405180910390f35b3480156106d057600080fd5b506106eb60048036038101906106e691906132d9565b6115d0565b005b61070760048036038101906107029190613480565b6116c8565b005b60007f780e9d63000000000000000000000000000000000000000000000000000000007bffffffffffffffffffffffffffffffffffffffffffffffffffffffff1916827bffffffffffffffffffffffffffffffffffffffffffffffffffffffff1916148061077c575061077b8261176c565b5b9050919050565b60606000805461079290614a05565b80601f01602080910402602001604051908101604052809291908181526020018280546107be90614a05565b801561080b5780601f106107e05761010080835404028352916020019161080b565b820191906000526020600020905b8154815290600101906020018083116107ee57829003601f168201915b5050505050905090565b60006108208261184e565b61085f576040517f08c379a0000000000000000000000000000000000000000000000000000000008152600401610856906145bf565b60405180910390fd5b6004600083815260200190815260200160002060009054906101000a900473ffffffffffffffffffffffffffffffffffffffff169050919050565b60006108a582610fd4565b90508073ffffffffffffffffffffffffffffffffffffffff168373ffffffffffffffffffffffffffffffffffffffff161415610916576040517f08c379a000000000000000000000000000000000000000000000000000000000815260040161090d9061461f565b60405180910390fd5b8073ffffffffffffffffffffffffffffffffffffffff166109356118ba565b73ffffffffffffffffffffffffffffffffffffffff16148061096457506109638161095e6118ba565b61153c565b5b6109a3576040517f08c379a000000000000000000000000000000000000000000000000000000000815260040161099a906144df565b60405180910390fd5b6109ad83836118c2565b505050565b600381565b6109bf6118ba565b73ffffffffffffffffffffffffffffffffffffffff166109dd6112d3565b73ffffffffffffffffffffffffffffffffffffffff1614610a33576040517f08c379a0000000000000000000000000000000000000000000000000000000008152600401610a2a906145df565b60405180910390fd5b6000610a3f600b61197b565b9050601e610a57600a8361198990919063ffffffff16565b10610a97576040517f08c379a0000000000000000000000000000000000000000000000000000000008152600401610a8e9061455f565b60405180910390fd5b60005b600a811015610abe57610aab61199f565b8080610ab690614a37565b915050610a9a565b5050565b6000600880549050905090565b610ae0610ada6118ba565b826119c4565b610b1f576040517f08c379a0000000000000000000000000000000000000000000000000000000008152600401610b169061465f565b60405180910390fd5b610b2a838383611aa2565b505050565b6000610b3a83611086565b8210610b7b576040517f08c379a0000000000000000000000000000000000000000000000000000000008152600401610b729061435f565b60405180910390fd5b600660008473ffffffffffffffffffffffffffffffffffffffff1673ffffffffffffffffffffffffffffffffffffffff168152602001908152602001600020600083815260200190815260200160002054905092915050565b601e81565b6000610be5600b61197b565b9050601e610bfc838361198990919063ffffffff16565b1115610c3d576040517f08c379a0000000000000000000000000000000000000000000000000000000008152600401610c349061433f565b60405180910390fd5b600082118015610c4e575060038211155b610c8d576040517f08c379a0000000000000000000000000000000000000000000000000000000008152600401610c849061449f565b60405180910390fd5b610ca682655af3107a4000611d0990919063ffffffff16565b341015610ce8576040517f08c379a0000000000000000000000000000000000000000000000000000000008152600401610cdf9061445f565b60405180910390fd5b60005b82811015610d0e57610cfb61199f565b8080610d0690614a37565b915050610ceb565b505050565b610d1b6118ba565b73ffffffffffffffffffffffffffffffffffffffff16610d396112d3565b73ffffffffffffffffffffffffffffffffffffffff1614610d8f576040517f08c379a0000000000000000000000000000000000000000000000000000000008152600401610d86906145df565b60405180910390fd5b600047905060008111610dd7576040517f08c379a0000000000000000000000000000000000000000000000000000000008152600401610dce9061459f565b60405180910390fd5b60003373ffffffffffffffffffffffffffffffffffffffff1682604051610dfd9061422d565b60006040518083038185875af1925050503d8060008114610e3a576040519150601f19603f3d011682016040523d82523d6000602084013e610e3f565b606091505b5050905080610e83576040517f08c379a0000000000000000000000000000000000000000000000000000000008152600401610e7a9061463f565b60405180910390fd5b5050565b610ea2838383604051806020016040528060008152506113a5565b505050565b6000610eb1610ac2565b8210610ef2576040517f08c379a0000000000000000000000000000000000000000000000000000000008152600401610ee99061469f565b60405180910390fd5b60088281548110610f2c577f4e487b7100000000000000000000000000000000000000000000000000000000600052603260045260246000fd5b90600052602060002001549050919050565b610f466118ba565b73ffffffffffffffffffffffffffffffffffffffff16610f646112d3565b73ffffffffffffffffffffffffffffffffffffffff1614610fba576040517f08c379a0000000000000000000000000000000000000000000000000000000008152600401610fb1906145df565b60405180910390fd5b80600c9080519060200190610fd0929190613054565b5050565b6000806002600084815260200190815260200160002060009054906101000a900473ffffffffffffffffffffffffffffffffffffffff169050600073ffffffffffffffffffffffffffffffffffffffff168173ffffffffffffffffffffffffffffffffffffffff16141561107d576040517f08c379a00000000000000000000000000000000000000000000000000000000081526004016110749061453f565b60405180910390fd5b80915050919050565b60008073ffffffffffffffffffffffffffffffffffffffff168273ffffffffffffffffffffffffffffffffffffffff1614156110f7576040517f08c379a00000000000000000000000000000000000000000000000000000000081526004016110ee906144ff565b60405180910390fd5b600360008373ffffffffffffffffffffffffffffffffffffffff1673ffffffffffffffffffffffffffffffffffffffff168152602001908152602001600020549050919050565b6111466118ba565b73ffffffffffffffffffffffffffffffffffffffff166111646112d3565b73ffffffffffffffffffffffffffffffffffffffff16146111ba576040517f08c379a00000000000000000000000000000000000000000000000000000000081526004016111b1906145df565b60405180910390fd5b6111c46000611d1f565b565b606060006111d383611086565b905060008167ffffffffffffffff811115611217577f4e487b7100000000000000000000000000000000000000000000000000000000600052604160045260246000fd5b6040519080825280602002602001820160405280156112455781602001602082028036833780820191505090505b50905060005b828110156112b55761125d8582610b2f565b828281518110611296577f4e487b7100000000000000000000000000000000000000000000000000000000600052603260045260246000fd5b60200260200101818152505080806112ad90614a37565b91505061124b565b508092505050919050565b60006002905090565b655af3107a400081565b6000600a60009054906101000a900473ffffffffffffffffffffffffffffffffffffffff16905090565b60606001805461130c90614a05565b80601f016020809104026020016040519081016040528092919081815260200182805461133890614a05565b80156113855780601f1061135a57610100808354040283529160200191611385565b820191906000526020600020905b81548152906001019060200180831161136857829003601f168201915b5050505050905090565b6113a161139a6118ba565b8383611de5565b5050565b6113b66113b06118ba565b836119c4565b6113f5576040517f08c379a00000000000000000000000000000000000000000000000000000000081526004016113ec9061465f565b60405180910390fd5b61140184848484611f52565b50505050565b60606114128261184e565b611451576040517f08c379a0000000000000000000000000000000000000000000000000000000008152600401611448906145ff565b60405180910390fd5b600061145b611fae565b9050600081511161147b57604051806020016040528060008152506114a6565b8061148584612040565b604051602001611496929190614209565b6040516020818303038152906040525b915050919050565b600c80546114bb90614a05565b80601f01602080910402602001604051908101604052809291908181526020018280546114e790614a05565b80156115345780601f1061150957610100808354040283529160200191611534565b820191906000526020600020905b81548152906001019060200180831161151757829003601f168201915b505050505081565b6000600560008473ffffffffffffffffffffffffffffffffffffffff1673ffffffffffffffffffffffffffffffffffffffff16815260200190815260200160002060008373ffffffffffffffffffffffffffffffffffffffff1673ffffffffffffffffffffffffffffffffffffffff16815260200190815260200160002060009054906101000a900460ff16905092915050565b6115d86118ba565b73ffffffffffffffffffffffffffffffffffffffff166115f66112d3565b73ffffffffffffffffffffffffffffffffffffffff161461164c576040517f08c379a0000000000000000000000000000000000000000000000000000000008152600401611643906145df565b60405180910390fd5b600073ffffffffffffffffffffffffffffffffffffffff168173ffffffffffffffffffffffffffffffffffffffff1614156116bc576040517f08c379a00000000000000000000000000000000000000000000000000000000081526004016116b39061439f565b60405180910390fd5b6116c581611d1f565b50565b6000871161170b576040517f08c379a0000000000000000000000000000000000000000000000000000000008152600401611702906143ff565b60405180910390fd5b61173f336117176112d3565b898b73ffffffffffffffffffffffffffffffffffffffff166121ed909392919063ffffffff16565b600061174b600b61197b565b9050611757328261239a565b611761600b6123b8565b505050505050505050565b60007f80ac58cd000000000000000000000000000000000000000000000000000000007bffffffffffffffffffffffffffffffffffffffffffffffffffffffff1916827bffffffffffffffffffffffffffffffffffffffffffffffffffffffff1916148061183757507f5b5e139f000000000000000000000000000000000000000000000000000000007bffffffffffffffffffffffffffffffffffffffffffffffffffffffff1916827bffffffffffffffffffffffffffffffffffffffffffffffffffffffff1916145b806118475750611846826123ce565b5b9050919050565b60008073ffffffffffffffffffffffffffffffffffffffff166002600084815260200190815260200160002060009054906101000a900473ffffffffffffffffffffffffffffffffffffffff1673ffffffffffffffffffffffffffffffffffffffff1614159050919050565b600033905090565b816004600083815260200190815260200160002060006101000a81548173ffffffffffffffffffffffffffffffffffffffff021916908373ffffffffffffffffffffffffffffffffffffffff160217905550808273ffffffffffffffffffffffffffffffffffffffff1661193583610fd4565b73ffffffffffffffffffffffffffffffffffffffff167f8c5be1e5ebec7d5bd14f71427d1e84f3dd0314c0f7b2291e5b200ac8c7c3b92560405160405180910390a45050565b600081600001549050919050565b60008183611997919061482d565b905092915050565b60006119ab600b61197b565b90506119b7338261239a565b6119c1600b6123b8565b50565b60006119cf8261184e565b611a0e576040517f08c379a0000000000000000000000000000000000000000000000000000000008152600401611a05906144bf565b60405180910390fd5b6000611a1983610fd4565b90508073ffffffffffffffffffffffffffffffffffffffff168473ffffffffffffffffffffffffffffffffffffffff161480611a8857508373ffffffffffffffffffffffffffffffffffffffff16611a7084610815565b73ffffffffffffffffffffffffffffffffffffffff16145b80611a995750611a98818561153c565b5b91505092915050565b8273ffffffffffffffffffffffffffffffffffffffff16611ac282610fd4565b73ffffffffffffffffffffffffffffffffffffffff1614611b18576040517f08c379a0000000000000000000000000000000000000000000000000000000008152600401611b0f906143bf565b60405180910390fd5b600073ffffffffffffffffffffffffffffffffffffffff168273ffffffffffffffffffffffffffffffffffffffff161415611b88576040517f08c379a0000000000000000000000000000000000000000000000000000000008152600401611b7f9061441f565b60405180910390fd5b611b93838383612438565b611b9e6000826118c2565b6001600360008573ffffffffffffffffffffffffffffffffffffffff1673ffffffffffffffffffffffffffffffffffffffff1681526020019081526020016000206000828254611bee919061490e565b925050819055506001600360008473ffffffffffffffffffffffffffffffffffffffff1673ffffffffffffffffffffffffffffffffffffffff1681526020019081526020016000206000828254611c45919061482d565b92505081905550816002600083815260200190815260200160002060006101000a81548173ffffffffffffffffffffffffffffffffffffffff021916908373ffffffffffffffffffffffffffffffffffffffff160217905550808273ffffffffffffffffffffffffffffffffffffffff168473ffffffffffffffffffffffffffffffffffffffff167fddf252ad1be2c89b69c2b068fc378daa952ba7f163c4a11628f55a4df523b3ef60405160405180910390a4611d0483838361254c565b505050565b60008183611d1791906148b4565b905092915050565b6000600a60009054906101000a900473ffffffffffffffffffffffffffffffffffffffff16905081600a60006101000a81548173ffffffffffffffffffffffffffffffffffffffff021916908373ffffffffffffffffffffffffffffffffffffffff1602179055508173ffffffffffffffffffffffffffffffffffffffff168173ffffffffffffffffffffffffffffffffffffffff167f8be0079c531659141344cd1fd0a4f28419497f9722a3daafe3b4186f6b6457e060405160405180910390a35050565b8173ffffffffffffffffffffffffffffffffffffffff168373ffffffffffffffffffffffffffffffffffffffff161415611e54576040517f08c379a0000000000000000000000000000000000000000000000000000000008152600401611e4b9061443f565b60405180910390fd5b80600560008573ffffffffffffffffffffffffffffffffffffffff1673ffffffffffffffffffffffffffffffffffffffff16815260200190815260200160002060008473ffffffffffffffffffffffffffffffffffffffff1673ffffffffffffffffffffffffffffffffffffffff16815260200190815260200160002060006101000a81548160ff0219169083151502179055508173ffffffffffffffffffffffffffffffffffffffff168373ffffffffffffffffffffffffffffffffffffffff167f17307eab39ab6107e8899845ad3d59bd9653f200f220920489ca2b5937696c3183604051611f459190614302565b60405180910390a3505050565b611f5d848484611aa2565b611f6984848484612551565b611fa8576040517f08c379a0000000000000000000000000000000000000000000000000000000008152600401611f9f9061437f565b60405180910390fd5b50505050565b6060600c8054611fbd90614a05565b80601f0160208091040260200160405190810160405280929190818152602001828054611fe990614a05565b80156120365780601f1061200b57610100808354040283529160200191612036565b820191906000526020600020905b81548152906001019060200180831161201957829003601f168201915b5050505050905090565b60606000821415612088576040518060400160405280600181526020017f300000000000000000000000000000000000000000000000000000000000000081525090506121e8565b600082905060005b600082146120ba5780806120a390614a37565b915050600a826120b39190614883565b9150612090565b60008167ffffffffffffffff8111156120fc577f4e487b7100000000000000000000000000000000000000000000000000000000600052604160045260246000fd5b6040519080825280601f01601f19166020018201604052801561212e5781602001600182028036833780820191505090505b5090505b600085146121e157600182612147919061490e565b9150600a856121569190614a80565b6030612162919061482d565b60f81b81838151811061219e577f4e487b7100000000000000000000000000000000000000000000000000000000600052603260045260246000fd5b60200101907effffffffffffffffffffffffffffffffffffffffffffffffffffffffffffff1916908160001a905350600a856121da9190614883565b9450612132565b8093505050505b919050565b60008114156121fb57612394565b612204846126e8565b15612365573373ffffffffffffffffffffffffffffffffffffffff168373ffffffffffffffffffffffffffffffffffffffff161480156122445750803410155b612283576040517f08c379a000000000000000000000000000000000000000000000000000000000815260040161227a9061451f565b60405180910390fd5b3073ffffffffffffffffffffffffffffffffffffffff168273ffffffffffffffffffffffffffffffffffffffff16146122fe578173ffffffffffffffffffffffffffffffffffffffff166108fc829081150290604051600060405180830381858888f193505050501580156122fc573d6000803e3d6000fd5b505b80341115612360573373ffffffffffffffffffffffffffffffffffffffff166108fc612333833461276a90919063ffffffff16565b9081150290604051600060405180830381858888f1935050505015801561235e573d6000803e3d6000fd5b505b612393565b6123928383838773ffffffffffffffffffffffffffffffffffffffff16612780909392919063ffffffff16565b5b5b50505050565b6123b4828260405180602001604052806000815250612809565b5050565b6001816000016000828254019250508190555050565b60007f01ffc9a7000000000000000000000000000000000000000000000000000000007bffffffffffffffffffffffffffffffffffffffffffffffffffffffff1916827bffffffffffffffffffffffffffffffffffffffffffffffffffffffff1916149050919050565b612443838383612864565b600073ffffffffffffffffffffffffffffffffffffffff168373ffffffffffffffffffffffffffffffffffffffff1614156124865761248181612869565b6124c5565b8173ffffffffffffffffffffffffffffffffffffffff168373ffffffffffffffffffffffffffffffffffffffff16146124c4576124c383826128b2565b5b5b600073ffffffffffffffffffffffffffffffffffffffff168273ffffffffffffffffffffffffffffffffffffffff1614156125085761250381612a1f565b612547565b8273ffffffffffffffffffffffffffffffffffffffff168273ffffffffffffffffffffffffffffffffffffffff1614612546576125458282612b62565b5b5b505050565b505050565b60006125728473ffffffffffffffffffffffffffffffffffffffff16612be1565b156126db578373ffffffffffffffffffffffffffffffffffffffff1663150b7a0261259b6118ba565b8786866040518563ffffffff1660e01b81526004016125bd9493929190614294565b602060405180830381600087803b1580156125d757600080fd5b505af192505050801561260857506040513d601f19601f82011682018060405250810190612605919061359e565b60015b61268b573d8060008114612638576040519150601f19603f3d011682016040523d82523d6000602084013e61263d565b606091505b50600081511415612683576040517f08c379a000000000000000000000000000000000000000000000000000000000815260040161267a9061437f565b60405180910390fd5b805181602001fd5b63150b7a0260e01b7bffffffffffffffffffffffffffffffffffffffffffffffffffffffff1916817bffffffffffffffffffffffffffffffffffffffffffffffffffffffff1916149150506126e0565b600190505b949350505050565b60008073ffffffffffffffffffffffffffffffffffffffff168273ffffffffffffffffffffffffffffffffffffffff161480612763575073eeeeeeeeeeeeeeeeeeeeeeeeeeeeeeeeeeeeeeee73ffffffffffffffffffffffffffffffffffffffff168273ffffffffffffffffffffffffffffffffffffffff16145b9050919050565b60008183612778919061490e565b905092915050565b612803846323b872dd60e01b8585856040516024016127a19392919061425d565b604051602081830303815290604052907bffffffffffffffffffffffffffffffffffffffffffffffffffffffff19166020820180517bffffffffffffffffffffffffffffffffffffffffffffffffffffffff8381831617835250505050612c20565b50505050565b6128138383612ce7565b6128206000848484612551565b61285f576040517f08c379a00000000000000000000000000000000000000000000000000000000081526004016128569061437f565b60405180910390fd5b505050565b505050565b6008805490506009600083815260200190815260200160002081905550600881908060018154018082558091505060019003906000526020600020016000909190919091505550565b600060016128bf84611086565b6128c9919061490e565b90506000600760008481526020019081526020016000205490508181146129ae576000600660008673ffffffffffffffffffffffffffffffffffffffff1673ffffffffffffffffffffffffffffffffffffffff168152602001908152602001600020600084815260200190815260200160002054905080600660008773ffffffffffffffffffffffffffffffffffffffff1673ffffffffffffffffffffffffffffffffffffffff168152602001908152602001600020600084815260200190815260200160002081905550816007600083815260200190815260200160002081905550505b6007600084815260200190815260200160002060009055600660008573ffffffffffffffffffffffffffffffffffffffff1673ffffffffffffffffffffffffffffffffffffffff16815260200190815260200160002060008381526020019081526020016000206000905550505050565b60006001600880549050612a33919061490e565b9050600060096000848152602001908152602001600020549050600060088381548110612a89577f4e487b7100000000000000000000000000000000000000000000000000000000600052603260045260246000fd5b906000526020600020015490508060088381548110612ad1577f4e487b7100000000000000000000000000000000000000000000000000000000600052603260045260246000fd5b906000526020600020018190555081600960008381526020019081526020016000208190555060096000858152602001908152602001600020600090556008805480612b46577f4e487b7100000000000000000000000000000000000000000000000000000000600052603160045260246000fd5b6001900381819060005260206000200160009055905550505050565b6000612b6d83611086565b905081600660008573ffffffffffffffffffffffffffffffffffffffff1673ffffffffffffffffffffffffffffffffffffffff168152602001908152602001600020600083815260200190815260200160002081905550806007600084815260200190815260200160002081905550505050565b6000808273ffffffffffffffffffffffffffffffffffffffff16803b806020016040519081016040528181526000908060200190933c51119050919050565b6000612c82826040518060400160405280602081526020017f5361666545524332303a206c6f772d6c6576656c2063616c6c206661696c65648152508573ffffffffffffffffffffffffffffffffffffffff16612ec19092919063ffffffff16565b9050600081511115612ce25780806020019051810190612ca2919061354c565b612ce1576040517f08c379a0000000000000000000000000000000000000000000000000000000008152600401612cd8906146bf565b60405180910390fd5b5b505050565b600073ffffffffffffffffffffffffffffffffffffffff168273ffffffffffffffffffffffffffffffffffffffff161415612d57576040517f08c379a0000000000000000000000000000000000000000000000000000000008152600401612d4e9061457f565b60405180910390fd5b612d608161184e565b15612da0576040517f08c379a0000000000000000000000000000000000000000000000000000000008152600401612d97906143df565b60405180910390fd5b612dac60008383612438565b6001600360008473ffffffffffffffffffffffffffffffffffffffff1673ffffffffffffffffffffffffffffffffffffffff1681526020019081526020016000206000828254612dfc919061482d565b92505081905550816002600083815260200190815260200160002060006101000a81548173ffffffffffffffffffffffffffffffffffffffff021916908373ffffffffffffffffffffffffffffffffffffffff160217905550808273ffffffffffffffffffffffffffffffffffffffff16600073ffffffffffffffffffffffffffffffffffffffff167fddf252ad1be2c89b69c2b068fc378daa952ba7f163c4a11628f55a4df523b3ef60405160405180910390a4612ebd6000838361254c565b5050565b6060612ed08484600085612ed9565b90509392505050565b606082471015612f1e576040517f08c379a0000000000000000000000000000000000000000000000000000000008152600401612f159061447f565b60405180910390fd5b612f2785612be1565b612f66576040517f08c379a0000000000000000000000000000000000000000000000000000000008152600401612f5d9061467f565b60405180910390fd5b6000808673ffffffffffffffffffffffffffffffffffffffff168587604051612f8f91906141f2565b60006040518083038185875af1925050503d8060008114612fcc576040519150601f19603f3d011682016040523d82523d6000602084013e612fd1565b606091505b5091509150612fe1828286612fed565b92505050949350505050565b60608315612ffd5782905061304d565b6000835111156130105782518084602001fd5b816040517f08c379a0000000000000000000000000000000000000000000000000000000008152600401613044919061431d565b60405180910390fd5b9392505050565b82805461306090614a05565b90600052602060002090601f01602090048101928261308257600085556130c9565b82601f1061309b57805160ff19168380011785556130c9565b828001600101855582156130c9579182015b828111156130c85782518255916020019190600101906130ad565b5b5090506130d691906130da565b5090565b5b808211156130f35760008160009055506001016130db565b5090565b600061310a61310584614746565b614715565b90508281526020810184848401111561312257600080fd5b61312d8482856149c3565b509392505050565b600061314861314384614776565b614715565b90508281526020810184848401111561316057600080fd5b61316b8482856149c3565b509392505050565b60008135905061318281614b7e565b92915050565b60008135905061319781614b95565b92915050565b6000815190506131ac81614b95565b92915050565b6000813590506131c181614bac565b92915050565b6000815190506131d681614bac565b92915050565b60008083601f8401126131ee57600080fd5b8235905067ffffffffffffffff81111561320757600080fd5b60208301915083600182028301111561321f57600080fd5b9250929050565b600082601f83011261323757600080fd5b81356132478482602086016130f7565b91505092915050565b60008083601f84011261326257600080fd5b8235905067ffffffffffffffff81111561327b57600080fd5b60208301915083600182028301111561329357600080fd5b9250929050565b600082601f8301126132ab57600080fd5b81356132bb848260208601613135565b91505092915050565b6000813590506132d381614bc3565b92915050565b6000602082840312156132eb57600080fd5b60006132f984828501613173565b91505092915050565b6000806040838503121561331557600080fd5b600061332385828601613173565b925050602061333485828601613173565b9150509250929050565b60008060006060848603121561335357600080fd5b600061336186828701613173565b935050602061337286828701613173565b9250506040613383868287016132c4565b9150509250925092565b600080600080608085870312156133a357600080fd5b60006133b187828801613173565b94505060206133c287828801613173565b93505060406133d3878288016132c4565b925050606085013567ffffffffffffffff8111156133f057600080fd5b6133fc87828801613226565b91505092959194509250565b6000806040838503121561341b57600080fd5b600061342985828601613173565b925050602061343a85828601613188565b9150509250929050565b6000806040838503121561345757600080fd5b600061346585828601613173565b9250506020613476858286016132c4565b9150509250929050565b60008060008060008060008060a0898b03121561349c57600080fd5b60006134aa8b828c01613173565b98505060206134bb8b828c016132c4565b975050604089013567ffffffffffffffff8111156134d857600080fd5b6134e48b828c016131dc565b9650965050606089013567ffffffffffffffff81111561350357600080fd5b61350f8b828c01613250565b9450945050608089013567ffffffffffffffff81111561352e57600080fd5b61353a8b828c016131dc565b92509250509295985092959890939650565b60006020828403121561355e57600080fd5b600061356c8482850161319d565b91505092915050565b60006020828403121561358757600080fd5b6000613595848285016131b2565b91505092915050565b6000602082840312156135b057600080fd5b60006135be848285016131c7565b91505092915050565b6000602082840312156135d957600080fd5b600082013567ffffffffffffffff8111156135f357600080fd5b6135ff8482850161329a565b91505092915050565b60006020828403121561361a57600080fd5b6000613628848285016132c4565b91505092915050565b600061363d83836141c5565b60208301905092915050565b61365281614942565b82525050565b6000613663826147b6565b61366d81856147e4565b9350613678836147a6565b8060005b838110156136a95781516136908882613631565b975061369b836147d7565b92505060018101905061367c565b5085935050505092915050565b6136bf81614954565b82525050565b60006136d0826147c1565b6136da81856147f5565b93506136ea8185602086016149d2565b6136f381614b6d565b840191505092915050565b6000613709826147c1565b6137138185614806565b93506137238185602086016149d2565b80840191505092915050565b600061373a826147cc565b6137448185614811565b93506137548185602086016149d2565b61375d81614b6d565b840191505092915050565b6000613773826147cc565b61377d8185614822565b935061378d8185602086016149d2565b80840191505092915050565b60006137a6601083614811565b91507f4e6f7420656e6f756768204e46547321000000000000000000000000000000006000830152602082019050919050565b60006137e6602b83614811565b91507f455243373231456e756d657261626c653a206f776e657220696e646578206f7560008301527f74206f6620626f756e64730000000000000000000000000000000000000000006020830152604082019050919050565b600061384c603283614811565b91507f4552433732313a207472616e7366657220746f206e6f6e20455243373231526560008301527f63656976657220696d706c656d656e74657200000000000000000000000000006020830152604082019050919050565b60006138b2602683614811565b91507f4f776e61626c653a206e6577206f776e657220697320746865207a65726f206160008301527f64647265737300000000000000000000000000000000000000000000000000006020830152604082019050919050565b6000613918602583614811565b91507f4552433732313a207472616e736665722066726f6d20696e636f72726563742060008301527f6f776e65720000000000000000000000000000000000000000000000000000006020830152604082019050919050565b600061397e601c83614811565b91507f4552433732313a20746f6b656e20616c7265616479206d696e746564000000006000830152602082019050919050565b60006139be600e83614811565b91507f696e76616c696420616d6f756e740000000000000000000000000000000000006000830152602082019050919050565b60006139fe602483614811565b91507f4552433732313a207472616e7366657220746f20746865207a65726f2061646460008301527f72657373000000000000000000000000000000000000000000000000000000006020830152604082019050919050565b6000613a64601983614811565b91507f4552433732313a20617070726f766520746f2063616c6c6572000000000000006000830152602082019050919050565b6000613aa4602283614811565b91507f4e6f7420656e6f75676820657468657220746f207075726368617365204e465460008301527f732e0000000000000000000000000000000000000000000000000000000000006020830152604082019050919050565b6000613b0a602683614811565b91507f416464726573733a20696e73756666696369656e742062616c616e636520666f60008301527f722063616c6c00000000000000000000000000000000000000000000000000006020830152604082019050919050565b6000613b70602583614811565b91507f43616e6e6f74206d696e7420737065636966696564206e756d626572206f662060008301527f4e4654732e0000000000000000000000000000000000000000000000000000006020830152604082019050919050565b6000613bd6602c83614811565b91507f4552433732313a206f70657261746f7220717565727920666f72206e6f6e657860008301527f697374656e7420746f6b656e00000000000000000000000000000000000000006020830152604082019050919050565b6000613c3c603883614811565b91507f4552433732313a20617070726f76652063616c6c6572206973206e6f74206f7760008301527f6e6572206e6f7220617070726f76656420666f7220616c6c00000000000000006020830152604082019050919050565b6000613ca2602a83614811565b91507f4552433732313a2062616c616e636520717565727920666f7220746865207a6560008301527f726f2061646472657373000000000000000000000000000000000000000000006020830152604082019050919050565b6000613d08602b83614811565b91507f57726f6e6720757365616765206f66204554482e756e6976657273616c54726160008301527f6e7366657246726f6d28290000000000000000000000000000000000000000006020830152604082019050919050565b6000613d6e602983614811565b91507f4552433732313a206f776e657220717565727920666f72206e6f6e657869737460008301527f656e7420746f6b656e00000000000000000000000000000000000000000000006020830152604082019050919050565b6000613dd4600f83614811565b91507f4e6f7420656e6f756768204e46547300000000000000000000000000000000006000830152602082019050919050565b6000613e14602083614811565b91507f4552433732313a206d696e7420746f20746865207a65726f20616464726573736000830152602082019050919050565b6000613e54601983614811565b91507f4e6f206574686572206c65667420746f207769746864726177000000000000006000830152602082019050919050565b6000613e94602c83614811565b91507f4552433732313a20617070726f76656420717565727920666f72206e6f6e657860008301527f697374656e7420746f6b656e00000000000000000000000000000000000000006020830152604082019050919050565b6000613efa602083614811565b91507f4f776e61626c653a2063616c6c6572206973206e6f7420746865206f776e65726000830152602082019050919050565b6000613f3a602f83614811565b91507f4552433732314d657461646174613a2055524920717565727920666f72206e6f60008301527f6e6578697374656e7420746f6b656e00000000000000000000000000000000006020830152604082019050919050565b6000613fa0602183614811565b91507f4552433732313a20617070726f76616c20746f2063757272656e74206f776e6560008301527f72000000000000000000000000000000000000000000000000000000000000006020830152604082019050919050565b6000614006600083614806565b9150600082019050919050565b6000614020601083614811565b91507f5472616e73666572206661696c65642e000000000000000000000000000000006000830152602082019050919050565b6000614060603183614811565b91507f4552433732313a207472616e736665722063616c6c6572206973206e6f74206f60008301527f776e6572206e6f7220617070726f7665640000000000000000000000000000006020830152604082019050919050565b60006140c6601d83614811565b91507f416464726573733a2063616c6c20746f206e6f6e2d636f6e74726163740000006000830152602082019050919050565b6000614106602c83614811565b91507f455243373231456e756d657261626c653a20676c6f62616c20696e646578206f60008301527f7574206f6620626f756e647300000000000000000000000000000000000000006020830152604082019050919050565b600061416c602a83614811565b91507f5361666545524332303a204552433230206f7065726174696f6e20646964206e60008301527f6f742073756363656564000000000000000000000000000000000000000000006020830152604082019050919050565b6141ce816149ac565b82525050565b6141dd816149ac565b82525050565b6141ec816149b6565b82525050565b60006141fe82846136fe565b915081905092915050565b60006142158285613768565b91506142218284613768565b91508190509392505050565b600061423882613ff9565b9150819050919050565b60006020820190506142576000830184613649565b92915050565b60006060820190506142726000830186613649565b61427f6020830185613649565b61428c60408301846141d4565b949350505050565b60006080820190506142a96000830187613649565b6142b66020830186613649565b6142c360408301856141d4565b81810360608301526142d581846136c5565b905095945050505050565b600060208201905081810360008301526142fa8184613658565b905092915050565b600060208201905061431760008301846136b6565b92915050565b60006020820190508181036000830152614337818461372f565b905092915050565b6000602082019050818103600083015261435881613799565b9050919050565b60006020820190508181036000830152614378816137d9565b9050919050565b600060208201905081810360008301526143988161383f565b9050919050565b600060208201905081810360008301526143b8816138a5565b9050919050565b600060208201905081810360008301526143d88161390b565b9050919050565b600060208201905081810360008301526143f881613971565b9050919050565b60006020820190508181036000830152614418816139b1565b9050919050565b60006020820190508181036000830152614438816139f1565b9050919050565b6000602082019050818103600083015261445881613a57565b9050919050565b6000602082019050818103600083015261447881613a97565b9050919050565b6000602082019050818103600083015261449881613afd565b9050919050565b600060208201905081810360008301526144b881613b63565b9050919050565b600060208201905081810360008301526144d881613bc9565b9050919050565b600060208201905081810360008301526144f881613c2f565b9050919050565b6000602082019050818103600083015261451881613c95565b9050919050565b6000602082019050818103600083015261453881613cfb565b9050919050565b6000602082019050818103600083015261455881613d61565b9050919050565b6000602082019050818103600083015261457881613dc7565b9050919050565b6000602082019050818103600083015261459881613e07565b9050919050565b600060208201905081810360008301526145b881613e47565b9050919050565b600060208201905081810360008301526145d881613e87565b9050919050565b600060208201905081810360008301526145f881613eed565b9050919050565b6000602082019050818103600083015261461881613f2d565b9050919050565b6000602082019050818103600083015261463881613f93565b9050919050565b6000602082019050818103600083015261465881614013565b9050919050565b6000602082019050818103600083015261467881614053565b9050919050565b60006020820190508181036000830152614698816140b9565b9050919050565b600060208201905081810360008301526146b8816140f9565b9050919050565b600060208201905081810360008301526146d88161415f565b9050919050565b60006020820190506146f460008301846141d4565b92915050565b600060208201905061470f60008301846141e3565b92915050565b6000604051905081810181811067ffffffffffffffff8211171561473c5761473b614b3e565b5b8060405250919050565b600067ffffffffffffffff82111561476157614760614b3e565b5b601f19601f8301169050602081019050919050565b600067ffffffffffffffff82111561479157614790614b3e565b5b601f19601f8301169050602081019050919050565b6000819050602082019050919050565b600081519050919050565b600081519050919050565b600081519050919050565b6000602082019050919050565b600082825260208201905092915050565b600082825260208201905092915050565b600081905092915050565b600082825260208201905092915050565b600081905092915050565b6000614838826149ac565b9150614843836149ac565b9250827fffffffffffffffffffffffffffffffffffffffffffffffffffffffffffffffff0382111561487857614877614ab1565b5b828201905092915050565b600061488e826149ac565b9150614899836149ac565b9250826148a9576148a8614ae0565b5b828204905092915050565b60006148bf826149ac565b91506148ca836149ac565b9250817fffffffffffffffffffffffffffffffffffffffffffffffffffffffffffffffff048311821515161561490357614902614ab1565b5b828202905092915050565b6000614919826149ac565b9150614924836149ac565b92508282101561493757614936614ab1565b5b828203905092915050565b600061494d8261498c565b9050919050565b60008115159050919050565b60007fffffffff0000000000000000000000000000000000000000000000000000000082169050919050565b600073ffffffffffffffffffffffffffffffffffffffff82169050919050565b6000819050919050565b600060ff82169050919050565b82818337600083830152505050565b60005b838110156149f05780820151818401526020810190506149d5565b838111156149ff576000848401525b50505050565b60006002820490506001821680614a1d57607f821691505b60208210811415614a3157614a30614b0f565b5b50919050565b6000614a42826149ac565b91507fffffffffffffffffffffffffffffffffffffffffffffffffffffffffffffffff821415614a7557614a74614ab1565b5b600182019050919050565b6000614a8b826149ac565b9150614a96836149ac565b925082614aa657614aa5614ae0565b5b828206905092915050565b7f4e487b7100000000000000000000000000000000000000000000000000000000600052601160045260246000fd5b7f4e487b7100000000000000000000000000000000000000000000000000000000600052601260045260246000fd5b7f4e487b7100000000000000000000000000000000000000000000000000000000600052602260045260246000fd5b7f4e487b7100000000000000000000000000000000000000000000000000000000600052604160045260246000fd5b6000601f19601f8301169050919050565b614b8781614942565b8114614b9257600080fd5b50565b614b9e81614954565b8114614ba957600080fd5b50565b614bb581614960565b8114614bc057600080fd5b50565b614bcc816149ac565b8114614bd757600080fd5b5056fea26469706673582212205edd268ae2b64e26dd8cbb980c48d6b362d24bf73accac3c0a4c0d52cc92619964736f6c63430008000033",
  "linkReferences": {},
  "deployedLinkReferences": {}
}